:060000000A128A11122809
:10000800FE00030E83120313D6000408D7000A0863
:10001800D8007F08D9000A128A15B02A0A128A1550
:10002800822A0A128A157F270A128A118316031355
:100038004B08013A031D2128222860284C08013A60
:10004800031D2728282860284D08013A031D2D285C
:100058002E286028CE08031D322833286028CF08B0
:10006800031D3728382860285008013A031D3D2809
:100078003E2860285108013A031D43284428602877
:100088005208013A031D49284A2860281E30B50045
:100098003508B3001E300A128A1570220A128A1116
:1000A8000A3083160313A0000030A1000A128A1533
:1000B80064230A128A11172A831603134B08031D97
:1000C80066286C28CC08031D6A286B28A6286C288B
:1000D8004D08013A031D71287228A6284E08013AD6
:1000E800031D77287828A6284F08013A031D7D2884
:1000F8007E28A6285008013A031D83288428A628AC
:100108005108013A031D89288A28A6285208013A6D
:10011800031D8F289028A6282330B5003508B30082
:1001280014300A128A1570220A128A110A308316AC
:100138000313A0000030A1000A128A1564230A12D2
:100148008A11172A831603134B08013A031DAD2899
:10015800AE28EC284C08013A031DB328B428EC2833
:100168004D08013A031DB928BA28EC284E08013A6F
:10017800031DBF28C028EC284F08013A031DC528D5
:10018800C628EC285008013A031DCB28CC28EC28B7
:100198005108031DD028D628D208031DD428D528F5
:1001A800EC28D6281430B5003508B30023300A12DD
:1001B8008A1570220A128A110A3083160313A000C6
:1001C8000030A1000A128A1564230A128A11172A1C
:1001D800831603134B08013A031DF328F428322928
:1001E8004C08031DF828FE28CD08031DFC28FD280F
:1001F8003229FE284E08013A031D03290429322911
:100208004F08013A031D09290A2932295008013AE1
:10021800031D0F29102932295108013A031D1529F8
:10022800162932295208013A031D1B291C29322993
:100238002330B5003508B30014300A128A1570222D
:100248000A128A110A3083160313A0000030A10095
:100258000A128A1564230A128A11172A83160313AD
:100268004B08013A031D39293A2978294C08013AE3
:10027800031D3F29402978294D08031D44294A298F
:10028800CE08031D4829492978294A294F08013AE7
:10029800031D4F29502978295008013A031D552973
:1002A800562978295108013A031D5B295C297829C8
:1002B8005208013A031D6129622978292330B500C3
:1002C8003508B30014300A128A1570220A128A11EE
:1002D8000A3083160313A0000030A1000A128A1501
:1002E80064230A128A11172A831603134B08013A4A
:1002F800031D7F298029BE294C08013A031D852941
:100308008629BE294D08013A031D8B298C29BE294F
:100318004E08013A031D91299229BE294F08013A36
:10032800031D97299829BE295008031D9C29A22935
:10033800D108031DA029A129BE29A2295208013AE2
:10034800031DA729A829BE291430B5003508B30014
:1003580023300A128A1570220A128A110A3083166B
:100368000313A0000030A1000A128A1564230A12A0
:100378008A11172A831603134B08013A031DC5294E
:10038800C629042A4C08013A031DCB29CC29042A82
:100398004D08013A031DD129D229042A4E08013AF1
:1003A800031DD729D829042A4F08031DDC29E2296F
:1003B800D008031DE029E129042AE2295108013A5D
:1003C800031DE729E829042A5208013A031DED29EB
:1003D800EE29042A1430B5003508B30023300A1278
:1003E8008A1570220A128A110A3083160313A00094
:1003F8000030A1000A128A1564230A128A11172AEA
:100408001E3083160313B5003508B3001E300A12D8
:100418008A1570220A128A11172A172A172A172AE8
:10042800172A172A172A080083160313BB00AF30B0
:10043800B1003108B400FE2A3C08253A0319252AE0
:10044800262A322A3C08B1003B088400310883136D
:1004580080000130B1003108BB07FE2AB501392AF6
:10046800122B4E2A4E2AFE2A4E2A0130AE07FF30A2
:100478002E0784000A128A150A200A128A11BC0063
:10048800003A0319122B643A03194E2A0D3A03193C
:100498004E2AFE2A3408840083130008B700840A11
:1004A8000008B8000230B1003108B407B81F5D2A4F
:1004B8005E2A682A0330B1003108B504B709B809C3
:1004C800B70A0319B80A682ABC010314BC0D3C0812
:1004D800053A031D702A712A732A9B2A9B2A3C0815
:1004E800B1003107013E84000A128A150A200A1257
:1004F8008A11B2000A128A150A200A128A11B30058
:1005080033083802031D8A2A3208370203188D2A55
:100518008E2A902A9B2A9B2A0130B1003108BC07F9
:100528003C08053A031D992A9A2A732A9B2A3508FA
:1005380003390319A02AA12AAD2A2D30B1003B089E
:1005480084003108831380000130B1003108BB07F3
:10055800AD2A3C08B1003108B600F22A0A30A800DA
:100568000030A9003608B1003107013E84000A12A4
:100578008A150A200A128A11A0000A128A150A206E
:100588000A128A11A1003808A301A3073708A2019B
:10059800A2070A128A158D250A128A1183160313D7
:1005A8002108AB01AB072008AA01AA070A128A157D
:1005B800B7240A128A11831603132808303EB200A2
:1005C8003208BC003C08B1003B08840031088313A2
:1005D80080000130B1003108BB07F22AFF30B100BA
:1005E8003108B6073608FF3A031DFB2AFC2AB22A4F
:1005F800FE2AFE2A0130AE07FF302E0784000A12B9
:100608008A150A200A128A11B1003108BC00BC08F8
:10061800031D0F2B102B202A122B122B3B088400B2
:1006280083138001172B0800831203132E08B400CC
:100638002F08B5003008B6000310350D360DB70089
:100648003708B800B808031D2A2B2B2B332B003092
:10065800AE000030AF000030B000052C052C31088A
:10066800B4003208B5003308B6000310350D360D56
:10067800B7003708BD00BD08031D432B442B4C2B86
:100688000030AE000030AF000030B000052C052C63
:100698003D087B3EB4003408B8072E08B4002F0884
:1006A800B5003008B60010300310B60CB50CB40C09
:1006B800FF3E031D582B3408B7003708BD0031082A
:1006C800B4003208B5003308B60010300310B60C79
:1006D800B50CB40CFF3E031D6A2B3408B70037086D
:1006E800BD068030B4003408BD05AF17B217FF301F
:1006F800B105FF30B2050030B3050030B900003055
:10070800BA000030BB000730B4003408BC008C2BA2
:100718002E1C8F2B902BA12B3108B90732080311FF
:100728000318320A0319992BBA073308031103185F
:10073800330A0319A02BBB07A12B01300310B00CFF
:10074800AF0CAE0CFF3E031DA22B01300310B10D00
:10075800B20DB30DFF3E031DAA2B0130BC02031DD1
:10076800B62BB72B8C2BB82B0930B4003408BC003F
:10077800BD2B2E1CC02BC12BD22B3108B907320838
:1007880003110318320A0319CA2BBA0733080311D5
:100798000318330A0319D12BBB07D22B01300310DE
:1007A800B00CAF0CAE0CFF3E031DD32B0130031071
:1007B800BB0CBA0CB90CFF3E031DDB2B0130BC028D
:1007C800031DE72BE82BBD2BE92B3908F0003A086D
:1007D800F1003B08F2003808B4003408F3003D0883
:1007E800B5003508F4000A128A1504270A128A117E
:1007F800700883120313AE007108AF007208B000CE
:10080800052C080083120313D400D201E908031D44
:100818000E2C0F2C252C5408553A031D142C152C7E
:10082800D42C5408CE0068085B3E84004E0883131D
:100838008000E9010314E90DE8010314E80DD42C44
:10084800D42C6908013A031D2A2C2B2C432C54085C
:10085800533A031D302C312CD42C5408CE00680890
:100868005B3E84004E08831380000230CE004E08A1
:10087800E9000230CE004E08E800D42CD42C6908D8
:10088800023A031D482C492CD42C5408CE00680881
:100898005B3E84004E08831380000130CE004E0872
:1008A800E80768080B3A031D5A2C5B2CD42CD3019B
:1008B8000A305302031C612C622C642C772C772C91
:1008C80053085B3E840052080007CE004E08D20051
:1008D8000130CE004E08D3070A305302031C752C92
:1008E800762C642C772C65085206031D7C2C7D2CF5
:1008F800CD2C6108CE00CF016208D000D10150088C
:10090800D100D0014E085004AA004F085104AB0092
:100918000A128A150C230A128A11831203132A0851
:10092800B1002B08B2002C08B3000030AE00343000
:10093800AF004330B0000A128A1118230A128A1134
:10094800831203132E08C1002F08C2003008C30009
:100958000030BE000030BF004730C0000A128A11C4
:10096800D5240A128A11831203133E08F8003F089F
:10097800F9004008FA000A128A114B260A128A1155
:10098800790883160313D401D4077808D301D30751
:10099800CD2C8312E901E801D42CD42CD42CD42CEE
:1009A8000800831203134108C4004208C500430825
:1009B800C6000310450D460DC7004708CC00CC08FB
:1009C800031DE72CE82CF02C0030BE000030BF00DF
:1009D8000030C0009C2D9C2D3E08C4003F08C50077
:1009E8004008C6000310450D460DC7004708CD0056
:1009F800CD08031D002D012D092D0030BE0000304B
:100A0800BF000030C0009C2D9C2D0030C900003074
:100A1800CA000030CB0089304D07C4004408CC021E
:100A28004108C4004208C5004308C600103003103E
:100A3800C60CC50CC40CFF3E031D1B2D4408C70083
:100A48004708CD003E08C4003F08C5004008C6005E
:100A580010300310C60CC50CC40CFF3E031D2D2D11
:100A68004408C7004708CD068030C4004408CD05B7
:100A7800C217FF30C105FF30C2050030C305BF17DC
:100A8800FF30BE05FF30BF050030C0051830C40078
:100A98004408C8004F2D01300310C90DCA0DCB0DF5
:100AA800FF3E031D502D40084302031D612D3F08E2
:100AB8004202031D612D3E084102031C642D652D71
:100AC800712D3E08C1023F08031C3F0FC2024008B7
:100AD800031C400AC3024914712D01300310C10DD3
:100AE800C20DC30DFF3E031D722D0130C802031D48
:100AF8007E2D7F2D4F2D802D4908F0004A08F100EA
:100B08004B08F2004C08C4004408F3004D08C50027
:100B18004508F4000A128A1504270A128A11700877
:100B280083120313BE007108BF007208C0009C2D19
:100B3800080083160313B30100300A128A157022C5
:100B48000A128A11B83083160313A0000B30A100D3
:100B58000A128A1564230A128A11143083160313A1
:100B6800BB003B08B30023300A128A1570220A1210
:100B78008A11B83083160313A0000B30A1000A12A3
:100B88008A1564230A128A11831603135408B601BE
:100B9800B6075308B501B507DC30B700FF30B80019
:100BA8000A128A11F1260A128A11831603135A08A7
:100BB800013A031DE02DE12DE72D0A128A111520B7
:100BC8000A128A11E72D831603135A08023A031DE5
:100BD800EE2DEF2D2A2EB30100300A128A1570224D
:100BE8000A128A11B83083160313A0000B30A10033
:100BF8000A128A1564230A128A11283083160313ED
:100C0800BB003B08B30014300A128A1570220A127E
:100C18008A11B83083160313A0000B30A1000A1202
:100C28008A1564230A128A11831603135408B6011D
:100C3800B6075308B501B5078C30B7000030B800C7
:100C48000A128A11F1260A128A112A2E8316031310
:100C58005A08033A031D312E322E382E0A128A11F1
:100C680015200A128A11382E0430831603135A02EB
:100C7800031C3F2E402E4A2EB30100300A128A155B
:100C880070220A128A11482E482E4A2E0800780827
:100C980083120313A0007908A1007A08A2000310A8
:100CA800210D220DA3002308A900A908031D5D2E0C
:100CB8005E2E682E0030FB000030FA000030F9008C
:100CC8000030F800F02EF02E7808A0007908A10076
:100CD8007A08A20017300310A20CA10CA00CFF3E4A
:100CE800031D6F2E2008A3002308A400F917FF3066
:100CF800F805FF30F9050030FA057808A5007908ED
:100D0800A6007A08A700A8018E30A902A91F8D2E77
:100D18008E2EB32E2908803A8F3E0318942E952ED6
:100D2800A02E0030FB000030FA000030F90000303F
:100D3800F800F02EF02EA02E01300310A80CA70CFE
:100D4800A60CA50CFF3E031DA12E0130A000200813
:100D5800A907031DB02EB12EA02ED72ED72E1830DE
:100D68002902031CB82EB92ED02E0030FB0000300B
:100D7800FA000030F9000030F800F02EF02ED02EE6
:100D88000130A0000310A50DA60DA70DA80DA00BFE
:100D9800C62E0130A902D02EA908031DD42ED52EA7
:100DA800C42ED72ED72E2408031DDB2EE72EA50927
:100DB800A609A709A809A50A0319A60A0319A70AD3
:100DC8000319A80AE72E2808FB002708FA002608B6
:100DD800F9002508F800F02E0800831603133509DA
:100DE800B9003609BA00B90A0319BA0A3708390727
:100DF800D70038080318380A3A07D8005808803A44
:100E0800FF0080307F02031D0B2FB5305702031CF3
:100E18000E2F0F2F182F983083160313D707031898
:100E2800D80AFE30D807182F831603135808803ABB
:100E3800FF007F307F02031D232F4C305702031819
:100E4800262F272F302F683083160313D707031850
:100E5800D80A0130D807302F831603135808803A70
:100E6800FF0080307F02031D3B2F1E3057020318FE
:100E78003E2F3F2F5C2F831603135808803AFF003C
:100E880080307F02031D4A2F01305702031C4D2F6B
:100E98004E2F5C2F8316031357081E3EB9003908DE
:100EA800B3001E300A128A1570220A128A118C2F7A
:100EB800831603135808803AFF007F307F02031D12
:100EC800672FE3305702031C6A2F6B2F7E2F831680
:100ED8000313D81F702F712F7E2F1E30B9003908C9
:100EE800B3005703FF3A1E3E0A128A1570220A12EF
:100EF8008A118C2F143083160313B9003908B300F4
:100F080014300A128A1570220A128A118C2F8C2F1B
:100F1800080083160313A408031D932F942F9A2FF8
:100F28002508803EA6002608A700A02F2508C03E59
:100F3800A6002608A700A02F2708831203138800FD
:100F48000A128A1544220A128A11CF2F8316031314
:100F5800230883120313FF00831603132208840057
:100F6800831203130A128A1500200A128A118800B4
:100F7800013083160313A2070318A30A0030A3073E
:100F88000A128A1552220A128A110A128A15CC22CA
:100F98000A128A11CF2F831603132308831203130F
:100FA800FF008316031322088400831203130A1216
:100FB8008A1500200A128A110038031DE42FE52F34
:100FC800AA2FE62F080083160313071183120313B1
:100FD80007110C30970095018316031387108312AD
:100FE800031387100C309D009B0104309200FF30E2
:100FF8008316031392000800FF1B0A2883137F1827
:1010080083170008840A0319FF0A080008308A00B9
:101018000408840A82070034013400340A34003496
:1010280064340034E83403341034273459346134D8
:0C10380077343A3400342534643400343A
:10145E00FF308316031386008113080083160313CF
:10146E008901831203130910080064008001840AA5
:10147E0004060319003404063D2A83120313851251
:10148E00051285110A128A15CC220A128A158312A8
:10149E000313851508008312031385160512851193
:1014AE000A128A15CC220A128A1583120313851585
:1014BE0008000A128A11E7270A128A15C03083160D
:1014CE000313870083120313071087110712871265
:1014DE00080083160313B40033080A128A15FD247C
:1014EE000A128A158316031334080A128A15452523
:1014FE000A128A15080083135B3084006A300A12C0
:10150E008A153C220A128A15CB308400DB300A126F
:10151E008A153C220A128A1583010A128A15772C23
:10152E00C0308316031387002430980018129030B1
:10153E00831203139800981719308316031399001A
:10154E008312031318168B170B17831603138C169F
:10155E0008008C1EB32AB42ABF2A1A08D5005508D3
:10156E00DA005A080A128A1106240A128A15BF2AAC
:10157E00831203135908FF0058088A005708840085
:10158E00560E8300FE0E7E0E0900E73083160313FF
:10159E00A0000330A10021082004031DD72AD82A59
:1015AE00DA2AE72AE72A0130A0020030031CA10341
:1015BE00A10221082004031DE52AE62ADA2AE72AD9
:1015CE000800831603135408B601B6075308B50175
:1015DE00B5070030B7000030B8000A128A11F126A4
:1015EE000A128A15831603135A08013A031D002B9B
:1015FE00012B0B2BB30100300A128A1570220A122E
:10160E008A15092B092B0B2B080083120313AD012E
:10161E00AB1F122B132B1C2BAA09AB09AA0A0319F9
:10162E00AB0AAD010314AD0D1C2B2A08F0002B08DC
:10163E00F100F2018E30FC007C08F3002D08FD0055
:10164E007D08F4000A128A1504270A128A157008FA
:10165E0083120313AA007108AB007208AC00372B7B
:10166E00080083160313A401A5013D2B201C402B5B
:10167E00412B472B2208A4070318A50A2308A50708
:10168E0001300310A20DA30DFF3E031D482B0130A8
:10169E000310A10CA00CFF3E031D4F2B21082004AC
:1016AE00031D5A2B5B2B3D2B5C2B2508A101A1079B
:1016BE002408A001A007632B080083160313A301BF
:1016CE00A401872BA501C8302502031C6F2B702B9C
:1016DE00722B812B812B0000000001308316031327
:1016EE00A2002208A507C8302502031C7F2B802BE1
:1016FE00722B812B0130A3070318A40A0030A40714
:10170E0021082402031D8D2B20082302031C902B7D
:10171E00912B692B922B080083160313B00030080F
:10172E00803A1B3E031C9C2B9D2BA22B6430AF00DA
:10173E002F08B000A22B6430A6000030A70030089E
:10174E00A000A101A01BA103FF30A2000030A30046
:10175E000A128A1538230A128A15831603132108D2
:10176E00A901A9072008A801A8070A128A158E2622
:10177E000A128A1583160313260883120313950083
:10178E00080083160313B0003008803A1B3E031C7A
:10179E00D12BD22BD72B6430AF002F08B000D72B14
:1017AE006430A6000030A7003008A000A101A01BE5
:1017BE00A103FF30A2000030A3000A128A153823BD
:1017CE000A128A15831603132108A901A9072008F6
:1017DE00A801A8070A128A158E260A128A158316E0
:1017EE0003132608831203139B0008000A128A159E
:1017FE0037240A128A150B3083160313A200803089
:10180E00A300A401A5010A128A118D270A128A15B6
:10181E00103083160313BF003F08AE003E08B00120
:10182E00B0073D08AF01AF07C0300A128A11182267
:10183E000A128A15C03083160313A2000030A300CB
:10184E00A4010430BF003F08A5000A128A118D279B
:10185E000A128A150A128A15CC220A128A15080053
:10186E0083160313880107309F008501831203132B
:10187E00880185150A128A15CC220A128A1583163A
:10188E000313880185018312031388010A128A1536
:10189E00CC220A128A1501308312031388000A1211
:1018AE008A1544220A128A153830831203138800CF
:1018BE000A128A1544220A128A150C308312031357
:1018CE0088000A128A1544220A128A1506308312DB
:1018DE00031388000A128A1544220A128A15080078
:1018EE000A128A1560220A128A150A128A153522E0
:1018FE000A128A150A128A1537240A128A150A1232
:10190E008A1597220A128A150A128A152F220A128E
:10191E008A15912C831603135408BE01BE07530873
:10192E00BD01BD070A128A15FD230A128A150A1275
:10193E008A1535260A128A150A128A15E8220A1203
:10194E008A150A128A15DD250A128A150A128A11BB
:10195E009D250A128A15912C912C0A128A11122891
:10196E0083160313290828040319BE2CBF2CF52C4B
:10197E00AD010314AD0DCF2C01300310A80DA90D30
:10198E00FF3E031DC42C0130AC002C08AD07CF2C3C
:10199E00A91FD22CD32CC32CD52CD52C29082B0225
:1019AE00031DDB2C28082A02031CDE2CDF2CE62C60
:1019BE002808AA022908031CAB03AB02E62C01304F
:1019CE000310A90CA80CFF3E031DE72C0130AD023D
:1019DE00031DF22CF32CD52CF52CF52C2B08A9017C
:1019EE00A9072A08A801A807FC2C080083160313D0
:1019FE00B2003208803A1B3E031C062D072D0C2D1B
:101A0E006430B1003108B200182D3208803AE43E3D
:101A1E000318122D132D182D9C30B1003108B20071
:101A2E00182D3208803A7F3E031C1E2D1F2D242DAB
:101A3E008312031307148711352D83160313B2086F
:101A4E00031D2A2D2B2D302D831203130710871102
:101A5E00352D8312031307108715352D83160313A7
:101A6E00B21F3A2D3B2D3E2DB209B20A3E2D320841
:101A7E000A128A1593230A128A1508008316031375
:101A8E00B2003208803A1B3E031C4E2D4F2D542DB2
:101A9E006430B1003108B200602D3208803AE43E65
:101AAE0003185A2D5B2D602D9C30B1003108B20009
:101ABE00602D3208803A7F3E031C662D672D6C2DFB
:101ACE0083120313071687127D2D83160313B20894
:101ADE00031D722D732D782D831203130712871297
:101AEE007D2D83120313071287167D2D8316031384
:101AFE00B21F822D832D862DB209B20A862D320891
:101B0E000A128A15C8230A128A15080083160313AF
:101B1E00A501A601210820040319962D972DD52D78
:101B2E00A7010314A70DA72D01300310A00DA10DC1
:101B3E00FF3E031D9C2D0130A4002408A707A72DEE
:101B4E00A11FAA2DAB2D9B2DAD2DAD2D0130031058
:101B5E00A50DA60DFF3E031DAE2D21082302031D6C
:101B6E00BA2D20082202031CBD2DBE2DC62D200825
:101B7E00A2022108031CA303A3022514C62D0130C3
:101B8E000310A10CA00CFF3E031DC72D0130A702B0
:101B9E00031DD22DD32DAD2DD52DD52D2608A1016A
:101BAE00A1072508A001A007DC2D0800831603134A
:101BBE005408B601B6075308B501B5070030B70093
:101BCE000030B8000A128A11F1260A128A158316FD
:101BDE0003135A08013A031DF52DF62DFC2D0A129A
:101BEE008A1115200A128A15FC2D831603135A0822
:101BFE00023A031D032E042E142E5408B601B60706
:101C0E005308B501B507B430B7000030B8000A125A
:101C1E008A11F1260A128A15142E831603135A08F6
:101C2E00033A031D1B2E1C2E222E0A128A1115207A
:101C3E000A128A15222E0430831603135A02031C2D
:101C4E00292E2A2E342EB30100300A128A15702244
:101C5E000A128A15322E322E342E080083120313E6
:101C6E000608FF3A031D3C2E3D2E432E831603130A
:101C7E00D9010314D90D472E83160313D901472E0C
:101C8E005908A600A7012608D5002708D6008312FA
:101C9E0003130608FF3A0319552E562E8D2E831662
:101CAE0003135908A600A70156082706031D612E27
:101CBE00550826060319642E652E8D2E01308312CB
:101CCE0003138906643083160313A0000030A100AD
:101CDE000A128A1564230A128A150130831203131D
:101CEE008906643083160313A0000030A1000A1287
:101CFE008A1564230A128A15831203130910013000
:101D0E0083160313A6002608DA078D2E0800831605
:101D1E000313AC01A71F942E952E9E2EA609A7097C
:101D2E00A60A0319A70AAC010314AC0D9E2EA91F17
:101D3E00A12EA22EAC2EA809A909A80A0319A90A38
:101D4E000130AA002A08AC06AC2EAD01AE01270860
:101D5E0026040319B32EB42EF22EAB010314AB0DD1
:101D6E00C42E01300310A60DA70DFF3E031DB92E84
:101D7E000130AA002A08AB07C42EA71FC72EC82EF3
:101D8E00B82ECA2ECA2E01300310AD0DAE0DFF3E79
:101D9E00031DCB2E27082902031DD72E2608280245
:101DAE00031CDA2EDB2EE32E2608A8022708031CBE
:101DBE00A903A9022D14E32E01300310A70CA60CC3
:101DCE00FF3E031DE42E0130AB02031DEF2EF02E5D
:101DDE00CA2EF22EF22E2C08031DF62EFC2EAD0965
:101DEE00AE09AD0A0319AE0AFC2E2E08A701A707ED
:101DFE002D08A601A607032F08007308031D082F40
:101E0E00102F720871047004031D0E2F0F2F262F32
:101E1E00102F0030F0000030F1000030F2007E2F65
:101E2E007E2F262F0130F5007508F30701300310C1
:101E3E00F20CF10CF00CFF3E031D1E2F262FFE3070
:101E4E007205031D2B2F2C2F192F442F442F0130D9
:101E5E00F5007508F3070130F00700300318013064
:101E6E00F107003003180130F20701300310F20CB5
:101E7E00F10CF00CFF3E031D3D2FFF307205031DCC
:101E8E00492F4A2F2E2F572F572F0130F302013093
:101E9E000310F00DF10DF20DFF3E031D4F2F572FC6
:101EAE00F11F5A2F5B2F4C2F73185E2F5F2F652F4C
:101EBE00FF30F0057F30F105FF30F2050310F30C13
:101ECE007308F500F601F70110300310F50DF60D4D
:101EDE00F70DFF3E031D6C2F7508F0047608F10414
:101EEE007708F2047408031D7D2F7E2FF217080069
:101EFE00831203130618842F852F892F831603133D
:101F0E00CB018F2F83160313CB010314CB0D8F2F11
:101F1E00831203138618942F952F992F831603136C
:101F2E00CC019F2F83160313CC010314CC0D9F2FCE
:101F3E00831203130619A42FA52FA92F831603139B
:101F4E00CD01AF2F83160313CD010314CD0DAF2F8B
:101F5E00831203138619B42FB52FB92F83160313CB
:101F6E00CE01BF2F83160313CE010314CE0DBF2F48
:101F7E0083120313061AC42FC52FC92F83160313FA
:101F8E00CF01CF2F83160313CF010314CF0DCF2F05
:101F9E0083120313861AD42FD52FD92F831603132A
:101FAE00D001DF2F83160313D0010314D00DDF2FC2
:101FBE0083120313061BE42FE52FE92F8316031359
:101FCE00D101EF2F83160313D1010314D10DEF2F7F
:101FDE0083120313861BF42FF52FF92F8316031389
:101FEE00D201FF2F83160313D2010314D20DFF2F3C
:021FFE000800D9
:02400E0029FF88
:00000001FF
