:060000000A128A11122809
:10000800FE00030EF6000408F7000A08F800831241
:1000180003137F08F9000A128A119E280A128A110E
:10002800C0292C30F3000130F40074087304031D58
:100038001E281F2821283728372801308312031348
:1000480089060A128A1176210A128A110130F302EE
:100058000030031CF403F40274087304031D3528EC
:100068003628212837282C30F3000130F400740892
:100078007304031D40284128432859285928013072
:100088008312031389060A128A1128210A128A1177
:100098000130F3020030031CF403F4027408730403
:1000A800031D57285828432859286430F300003086
:1000B800F40074087304031D6228632865287B28EC
:1000C8007B2801308312031389060A128A114F21F3
:1000D8000A128A110130F3020030031CF403F402FF
:1000E80074087304031D79287A2865287B286430EE
:1000F800F3000030F40074087304031D8428852875
:1001080087289D289D2801308312031389060A1227
:100118008A1101210A128A110130F3020030031CEE
:10012800F403F40274087304031D9B289C28872891
:100138009D2808008B1CA128A228AC28FA017F3032
:1001480088000A128A1115200A128A118B10F428C5
:10015800FA08031DB028B128EC28FA010314FA0D97
:100168007B08831203130606F5007508FB007B085D
:10017800803A031DC028C128C328F73088007B08AF
:10018800403A031DC828C928CB28FB3088007B08C3
:10019800203A031DD028D128D328FD3088007B08B9
:1001A800103A031DD828D928DC28FE308800DC281E
:1001B8000A128A1115200A128A110A128A111520A8
:1001C8000A128A110A128A1115200A128A11EC28B9
:1001D800831203130608F5007508FB000B10F428BA
:1001E800790883120313FF0078088A0077088400CF
:1001F800760E8300FE0E7E0E09000B30F0007008AC
:10020800F100F108031D09290A290C2927292729A2
:100218001930F0007008F200F208031D142915299E
:1002280017291F291F290130F202F208031D1D2971
:100238001E2917291F290130F102F108031D25295C
:1002480026290C29272908000730F0007008F1003A
:10025800F108031D3029312933294E294E29193037
:10026800F0007008F200F208031D3B293C293E29E2
:10027800462946290130F202F208031D442945297E
:100288003E2946290130F102F108031D4C294D2968
:1002980033294E2908000F30F0007008F100F108EA
:1002A800031D572958295A29752975291930F0002D
:1002B8007008F200F208031D6229632965296D2977
:1002C8006D290130F202F208031D6B296C2965299A
:1002D8006D290130F102F108031D732974295A2987
:1002E800752908000330F0007008F100F108031DBB
:1002F8007E297F2981299C299C291930F0007008C2
:10030800F200F208031D89298A298C299429942945
:100318000130F202F208031D922993298C299429AD
:100328000130F102F108031D9A299B2981299C2992
:100338000800831603138801831203138801FF3012
:100348008316031386008113011707309F000910D5
:10035800831203130910FA010314FA0D8B170B16F5
:100368008B158B100608A0002008FB000B10BC2979
:10037800BC290A128A11122883010A128A119D299E
:02400E0029FF88
:00000001FF
