:060000000A128A11122809
:10000800FE00030EF6000408F7000A08F800831241
:1000180003137F08F9000A128A11F72B0A128A11B2
:10002800212C1929503083120313B000C330B100BA
:10003800B201B30154300A128A11AD230A128A118F
:100048004B29883083120313B0001330B100B2017A
:10005800B301AE300A128A11AD230A128A114B2954
:10006800F43083120313B0000130B100B201B301C0
:100078006C300A128A11AD230A128A114B29D43026
:1000880083120313B0003030B1000130B2000030E9
:10009800B30082300A128A11AD230A128A114B2941
:1000A800103083120313B0002730B1000130B200C2
:1000B8000030B3008D300A128A11AD230A128A115A
:1000C8004B29F43083120313B0000130B100013022
:1000D800B2000030B300A3300A128A11AD230A120D
:1000E8008A114B29103083120313B0002730B10056
:1000F800B201B30160300A128A11AD230A128A11C3
:100108004B29C43083120313B0000930B100B20187
:10011800B301B8300A128A11AD230A128A114B2989
:10012800E23083120313B0000430B100B201B3010E
:10013800C2300A128A11AD230A128A114B29E830FB
:1001480083120313B0000330B100B201B301CC3005
:100158000A128A11AD230A128A114B29A830831278
:100168000313B0006130B1000130B2000030B300B9
:1001780077300A128A11AD230A128A114B296A3084
:1001880083120313B0001830B1000130B200003000
:10019800B30098300A128A11AD230A128A114B292A
:1001A800883083120313B0001330B1000130B2005D
:1001B8000030B30024300A128A11AD230A128A11C2
:1001C8004B29C43083120313B0000930B100013049
:1001D800B2000030B30030300A128A11AD230A127F
:1001E8008A114B29E23083120313B0000430B100A6
:1001F8000130B2000030B3003C300A128A11AD233E
:100208000A128A114B29E83083120313B000033015
:10021800B1000130B2000030B30048300A128A1130
:10022800AD230A128A114B294B297208773A031910
:1002380007290C3A0319F628063A0319E528033A60
:100248000319D428C93A0319C3280C3A0319B22848
:10025800063A0319A328033A03199428693A03199B
:1002680085280C3A03197628063A03196528033AB3
:1002780003195428393A031943280C3A0319342826
:10028800063A03192528033A031916284B290A1296
:0A0298008A11A3240A128A1108003B
:1004000002308A000408840A8207003453346934B5
:1004100067346E3461346C342034473465346E3460
:1004200065347234613474346F34723420340D3472
:100430000A340034503472346534733473342034E5
:100440004B3430342D344B34463420340D340A349C
:1004500000344B3443343A3431343034303448345B
:100460007A3420340D340A3400344B3444343A3472
:1004700032343034303448347A3420340D340A3451
:1004800000344B3445343A34343430343034483426
:100490007A3420340D340A3400344B3446343A3440
:1004A00035343034303448347A3420340D340A341E
:1004B00000344B3430343A3430342E343134483410
:1004C0007A3420340D340A3400344B3436343A3420
:1004D00030342E34353448347A3420340D340A34F0
:1004E00000344B3432343A343134303448347A3492
:1004F00020340D340A3400344B3441343A3432342D
:10050000303448347A3420340D340A3400344B34D7
:1005100033343A343434303448347A3420340D347B
:100520000A3400344B3434343A34353430344834BB
:100530007A3420340D340A3400344B3442343A34A3
:100540003834303448347A3420340D340A340034AA
:100550004B3435343A3431346B3448347A342034C3
:100560000D340A3400344B3431343A3431344834A5
:100570007A3420340D340A3400344B3437343A346E
:10058000323448347A3420340D340A3400344B3455
:1005900038343A34343448347A3420340D340A341C
:1005A00000344B3439343A34353448347A342034D6
:1005B0000D340A3400347F308312031386000000A8
:1005C000831203130608B8003808F20072080F39C6
:1005D000B8003808F20072080F3A0319F02AF12A1D
:1005E000F72A72087038B8003808F2004C2BBF3078
:1005F00086000000831203130608B8003808F200D2
:1006000072080F39B8003808F20072080F3A03195F
:100610000A2B0B2B112B7208B038B8003808F200E7
:100620004C2BDF3086000000831203130608B8004D
:100630003808F20072080F39B8003808F200720862
:100640000F3A0319242B252B2B2B7208D038B80016
:100650003808F2004C2BEF308600000083120313A1
:100660000608B8003808F20072080F39B8003808D8
:10067000F20072080F3A03193E2B3F2B452B7208EC
:10068000E038B8003808F2004C2BFF30B8003808CA
:10069000F2004C2B4C2B4C2B7208FF3A031D512BB4
:1006A000522B572B7108B8003808F2005C2B7208E7
:1006B000B8003808F1005C2B08000A128A11822465
:1006C0000A128A1101308312031388000A128A1158
:1006D000B1240A128A110A128A1140240A128A11BC
:1006E00001300A128A11AD230A128A110A128A11E4
:1006F00040240A128A1115300A128A11AD230A12F7
:100700008A110A128A1140240A128A110F308316A4
:10071000031386008113F201F10150308312031399
:10072000B000C330B10083160313091007309F00D7
:1007300009100A128A116F240A128A110A128A11E8
:10074000DB220A128A110A128A1115200A128A1152
:100750009E2B9E2B0A128A11122883120313BB00B0
:10076000383088000A128A11B1240A128A110C301A
:100770008312031388000A128A11B1240A128A1103
:1007800006308312031388000A128A11B1240A1258
:100790008A1180308312031388000A128A11B1244F
:1007A0000A128A11E72B831203133B0884000A12F2
:1007B0008A1100220A128A1188000130BA003A0810
:1007C000BB070A128A11A3240A128A11E72B83128B
:1007D00003133B0884000A128A1100220A128A11AC
:1007E0000038031DF42BF52BD32BF62B08008C10AF
:1007F0003108831603139200831203133308320463
:10080000031D032C042C132C0130F5007508F00790
:100810007008643A031D0D2C0E2C162C013089062D
:10082000F001162C162C01308906162C7908FF00D1
:1008300078088A0077088400760E8300FE0E7E0E0C
:100840000900F001F101F201F301F401B001B1017D
:10085000B201B301B401B501B601B7018313303061
:10086000FD000430FE009330FF00203084000A12A7
:100870008A1160240A128A1183010A128A115D2BDF
:10088000E73083120313B8000330B9003908380485
:10089000031D4B2C4C2C4E2C5B2C5B2C0130B802D6
:1008A0000030031CB903B90239083804031D592C60
:1008B0005A2C4E2C5B2C08007E088A007F08820090
:1008C0000A128A115C240A128A118000840A040820
:1008D0007D0603190034FF0A0319FE0A602C8312F7
:1008E000031309108316031309108B170B178C14AD
:1008F000831203138C107F30920031088316031388
:100900009200080083160313880107309F008501B9
:10091000831203138510880185150A128A11402459
:100920000A128A110800303431343234333434340A
:10093000353436343734383439344134423443343E
:100940004434453446348312031385160512851149
:100950000A128A1140240A128A1183120313851580
:100960000800831203138512051285110A128A11D9
:0E09700040240A128A11831203138515080011
:02400E0029FF88
:00000001FF
