:060000000A128A11122809
:10000800FE00030EF1000408F2000A08F300831250
:1000180003137F08F4000A128A11B3280A128A11FE
:1000280038290A128A1162210A128A110A128A11BF
:10003800ED200A128A118316031307157C108B17FB
:100048000B170C15831203130C11831603130C14CE
:10005800831203130C109001053097003328803069
:100068008312031388000A128A1191210A128A1135
:100078007808F70004300310F70CFF3E031D3F28F3
:100088007708203E84008313000883120313880036
:100098000A128A1183210A128A1178080F39203E20
:1000A8008400831300088312031388000A128A113C
:1000B80083210A128A117908F70004300310F70C1B
:1000C800FF3E031D62287708203E84008313000842
:1000D8008312031388000A128A1183210A128A11D3
:1000E80079080F39203E8400831300088312031314
:1000F80088000A128A1183210A128A117A08F700E5
:1001080004300310F70CFF3E031D85287708203EB6
:100118008400831300088312031388000A128A11CB
:1001280083210A128A117A080F39203E840083132A
:1001380000088312031388000A128A1183210A1205
:100148008A1148308312031388000A128A11832106
:100158000A128A11332833280A128A1112280C1D10
:10016800B628B728D7280130FC067C1CBC28BD2837
:10017800C3288F018E011014FB010C11E12815080A
:100188001F3EF0007008FA0000300318013016070F
:10019800F0007008F9007B08F0007008F8001010F3
:1001A8000C11E128E1280C1CDA28DB28E1280130B1
:1001B800F0007008FB07E128E1280C107408FF0024
:1001C80073088A0072088400710E8300FE0E7E0E8A
:1001D800090083160313880185018312031388011C
:1001E8000A128A111E210A128A110130831203137E
:1001F80088000A128A1191210A128A113830831252
:10020800031388000A128A1191210A128A110C30EC
:100218008312031388000A128A1191210A128A1183
:1002280006308312031388000A128A1191210A12D8
:100238008A110800E730F5000330F60076087504E7
:10024800031D272928292A29372937290130F502AA
:100258000030031CF603F60276087504031D3529E1
:1002680036292A2937290800FC01F801F901FA0181
:10027800FB0183133030FD000130FE007330FF00B6
:10028800203084000A128A1153210A128A1183012C
:100298000A128A1115287E088A007F0882000A122D
:1002A8008A114F210A128A118000840A04087D06E7
:1002B80003190034FF0A0319FE0A5329831603138E
:1002C800880107309F008501831203138510880178
:1002D80085150A128A111E210A128A110800303463
:1002E80031343234333434343534363437343834C2
:1002F8003934413442344334443445344634831227
:1003080003138516051285110A128A111E210A1275
:100318008A118312031385150800831203138512AB
:10032800051285110A128A111E210A128A118312D6
:0603380003138515080007
:02400E0029FF88
:00000001FF
