:060000000A128A11122809
:10000800FE00030EF1000408F2000A08F300831250
:1000180003137F08F4000A128A11562C0A128A1157
:100028002C2C0130831603138500FF3087008801CC
:100038008312031388010C308316031399002430AC
:1000480098009030831203139800B40115303402DD
:10005800031C2F28302832284A284A283408A03E72
:1000680084008313000899000A128A1175240A1261
:100078008A11013083120313CC004C08B4071530E1
:100088003402031C4828492832284A288E3083160F
:1000980003139F0001308312031388000A128A1188
:1000A800F1240A128A1138308312031388000A12C5
:1000B8008A11F1240A128A110C3083120313880062
:1000C8000A128A11F1240A128A11063083120313C4
:1000D80088000A128A11F1240A128A110B178B1749
:1000E800831603130D14FF30831203139B00FF3094
:1000F8009C00303090000B309D00101441309F0060
:1001080085283608CC00CD014C08CD00CC014C0820
:10011800AE004D08AF0037082E07AC002F080318B3
:100128002F0AAD002C08BE002D08BF000030BF1BF1
:10013800FF30C000C1000030C5000030C400C3302B
:10014800C3005030C2000A128A11B4230A128A115D
:10015800831203134108A7004008A6003F08A50022
:100168003E08A4000030C1000030C0000330BF00CA
:10017800FF30BE002708C5002608C4002508C300B4
:100188002408C2000A128A1196220A128A118312BE
:1001980003134108A3004008A2003F08A1003E083D
:1001A800A0000030C1000130C0008630BF00A03080
:1001B800BE002308C5002208C4002108C300200887
:1001C800C2000A128A1196220A128A118312031394
:1001D8003E08CC004C08B5002008CC002108CD0012
:1001E8002208CE002308CF003508D000D101D20163
:1001F800D3015308C1005208C0005108BF0050087D
:10020800BE000030C5000130C4008630C300A030F5
:10021800C2000A128A11B4230A128A118312031324
:100228003E09D4003F09D5004009D6004109D7004E
:10023800D40A0319D50A0319D60A0319D70A540888
:10024800CC0755080318550F2A292B29CD0756081E
:100258000318560F30293129CE0757080318570AB3
:10026800CF074F08AB004E08AA004D08A9004C085C
:10027800A8000030C1000030C0002730BF00103097
:10028800BE002B08C5002A08C4002908C300280896
:10029800C2000A128A1196220A128A1183120313C3
:1002A8003E08CC004C08B8003808CC00CD014C08FA
:1002B800BE004D08BF001030C0002730C1000A1230
:1002C8008A1100240A128A11831203133E09CE00F0
:1002D8003F09CF00CE0A0319CF0A28084E07B000FD
:1002E80029080318290A4F07B100E830BE00033077
:1002F800BF003108C101C1073008C001C0070A1298
:100308008A113E230A128A11831203133E08CC0075
:100318004C08B9003908CC00CD014C08BE004D0886
:10032800BF00E830C0000330C1000A128A1100245F
:100338000A128A11831203133E09CE003F09CF0027
:10034800CE0A0319CF0A30084E07B2003108031845
:10035800310A4F07B3006430BE000030BF003308D5
:10036800C101C1073208C001C0070A128A113E2321
:100378000A128A11831203133E08CC004C08BC00F1
:100388006430CC004C08F5003C080A128A1191240C
:100398000A128A11FF3A013E831203133207CD0075
:1003A8004D08BD000A30BE000030BF003D08CC003B
:1003B800CD014C08C0004D08C1000A128A113E2325
:1003C8000A128A11831203133E08CE004E08BA009F
:1003D8000A30CC004C08F5003A080A128A11912418
:1003E8000A128A11FF3A013E831203133D07CD001A
:1003F8004D08BB00803088000A128A11F1240A12C5
:100408008A11831203133808583E840083130008A6
:1004180088000A128A11E3240A128A11831203132C
:100428003808583E84008313000899002E3088004D
:100438000A128A11E3240A128A112E308312031336
:1004480099003908583E84008313000888000A126E
:100458008A11E3240A128A11831203133908583EB9
:1004680084008313000899003C08583E8400000863
:1004780088000A128A11E3240A128A1183120313CC
:100488003C08583E84008313000899003A08583EF7
:100498008400000888000A128A11E3240A128A11CB
:1004A800831203133A08583E840083130008990006
:1004B8003B08583E8400000888000A128A11E32489
:1004C8000A128A11831203133B08583E84008313CF
:1004D800000899000A128A1175240A128A115630E6
:1004E8008312031399000A128A1175240A128A11B9
:1004F80020308312031399000A128A1175240A12F4
:100508008A1120308312031399000A128A11752464
:100518000A128A11203083120313990085280A12BF
:100528008A11122883120313C701C11F9C2A9D2A0E
:10053800AC2ABE09BF09C009C109BE0A0319BF0A0E
:100548000319C00A0319C10AC7010314C70DAC2A4D
:10055800C51FAF2AB02AC02AC209C309C409C509E0
:10056800C20A0319C30A0319C40A0319C50A0130C8
:10057800F5007508C706C02A0030CB000030CA0055
:100588000030C9000030C800410840043F043E0460
:100598000319CF2AD02A242BC6010314C60DE22A38
:1005A8000130F5000310BE0DBF0DC00DC10DF50BD8
:1005B800D62A0130F5007508C607E22AC11FE52AC8
:1005C800E62AD42AE82AE82A0130F5000310C80DE3
:1005D800C90DCA0DCB0DF50BEA2A41084502031DCA
:1005E800FF2A40084402031DFF2A3F084302031D57
:1005F800FF2A3E084202031C022B032B132B3E0842
:10060800C2023F08031C3F0FC3024008031C400FEF
:10061800C4024108031C410FC5024814132B0130C2
:100628000310C10CC00CBF0CBE0CFF3E031D142BE5
:100638000130C602031D212B222BE82A242B242B50
:100648004708031D282B342BC809C909CA09CB0937
:10065800C80A0319C90A0319CA0A0319CB0A342B91
:100668004B08C1004A08C0004908BF004808BE003E
:100678003D2B080083120313C301BF1F442B452BD6
:100688004E2BBE09BF09BE0A0319BF0AC3010314D2
:10069800C30D4E2BC11F512B522B5C2BC009C10916
:1006A800C00A0319C10A0130F5007508C3065C2B9E
:1006B800C401C5013F083E040319632B642BA22B18
:1006C800C2010314C20D742B01300310BE0DBF0DFF
:1006D800FF3E031D692B0130F5007508C207742B16
:1006E800BF1F772B782B682B7A2B7A2B01300310BE
:1006F800C40DC50DFF3E031D7B2B3F084102031DA2
:10070800872B3E084002031C8A2B8B2B932B3E0819
:10071800C0023F08031CC103C1024414932B0130DB
:100728000310BF0CBE0CFF3E031D942B0130C20208
:10073800031D9F2BA02B7A2BA22BA22B4308031D52
:10074800A62BAC2BC409C509C40A0319C50AAC2BCE
:100758004508BF01BF074408BE01BE07B32B080008
:10076800003083120313C9000030C8000030C700EE
:100778000030C600BF2B3E1CC22BC32BDB2B42080C
:10078800C607430803110318013E0319CC2BC707FA
:10079800440803110318013E0319D32BC807450861
:1007A80003110318013E0319DA2BC907DB2B0130AB
:1007B800F5000310C20DC30DC40DC50DF50BDD2BDF
:1007C80001300310C10CC00CBF0CBE0CFF3E031D52
:1007D800E52B410840043F043E04031DF42BF52B90
:1007E800BF2BF62B4908C1004808C0004708BF00C6
:1007F8004608BE00FF2B080083120313C201C30181
:10080800052C3E1C082C092C0F2C4008C207031885
:10081800C30A4108C30701300310C00DC10DFF3ED4
:10082800031D102C01300310BF0CBE0CFF3E031D2E
:10083800172C3F083E04031D222C232C052C242CA6
:100848004308BF01BF074208BE01BE072B2C0800A2
:10085800F601F701F8018313203084003E300A12B4
:100868008A11FF240A128A11B530FD000430FE00F7
:10087800AB30FF00A03084000A128A11C4240A1287
:100888008A116830FD000430FE00D330FF00583074
:1008980084000A128A11C4240A128A1183010A12D6
:1008A8008A1115280D100C1B5A2C5B2C5D2C572C0B
:1008B800572C1E08F0007008B600831603131E0894
:1008C800F000700883120313B7000C137408FF00BC
:1008D80073088A0072088400710E8300FE0E7E0E73
:1008E8000900CF3083120313BE000730BF003F0852
:1008F8003E04031D802C812C832C902C902C0130DD
:10090800BE020030031CBF03BF023F083E04031DA4
:100918008E2C8F2C832C902C080083120313C0007C
:10092800BF01401C982C992C9E2C7508BE003E08CF
:10093800BF079E2C0310F50D0310C00CC008031D43
:10094800A62CA72C952CA82C3F08AA2C08006D349F
:10095800793420346E3461346D346534203469342C
:100968007334203470346934633431343634663443
:1009780038343734373420347E088A007F088200C0
:100988000A128A11C0240A128A118000840A0408F3
:100998007D0603190034FF0A0319FE0AC42C3034FB
:1009A80031343234333434343534363437343834FB
:1009B8003934413442344334443445344634831260
:1009C80003138516051285110A128A1175240A1255
:1009D8008A118312031385150800831203138512E5
:1009E800051285110A128A1175240A128A118312B6
:1009F80003138515080064008001840A040603199E
:060A080000340406002D7D
:00000001FF
