:060000000A128A11122809
:10000800FE00030EF6000408F7000A08F800831241
:1000180003137F08F9000A128A11162B0A128A1193
:10002800CB2D831603138801850107309F000A1220
:100038008A11E7250A128A110130831203138800F6
:100048000A128A113E260A128A11383083120313C3
:1000580088000A128A113E260A128A110C3083126D
:10006800031388000A128A113E260A128A110630E2
:100078008312031388000A128A113E260A128A1173
:1000880000300A128A11A6250A128A118312031354
:10009800C2004208C30001300A128A11A6250A12BA
:1000A8008A1183120313C2004208C40002300A12E4
:1000B8008A11A6250A128A1183120313C200420864
:1000C800C500FA30C2004208D200C901CA0183162D
:1000D8000313061483120313C701C80183160313FD
:1000E80005108312031309108316031309104730F0
:1000F80081000B118312031381018B170B168B10D0
:10010800862886280A128A1142210A128A1180300A
:100118008312031388000A128A113E260A128A11D2
:10012800831203135508583E84008313000888007F
:100138000A128A1130260A128A11831203134B08F5
:10014800583E84008313000888000A128A1130265A
:100158000A128A11831203134C08583E8400831331
:10016800000888000A128A1130260A128A1183129E
:1001780003135608583E84008313000888000A12A7
:100188008A1130260A128A11831203134E08583E28
:1001980084008313000888000A128A1130260A1284
:1001A8008A11831203135008583E840083130008F1
:1001B80088000A128A1130260A128A118312031340
:1001C8004508C2004208A00002300A128A113F25E1
:1001D8000A128A11831203134408C2004208A000BD
:1001E80001300A128A113F250A128A118312031359
:1001F8004308C2004208A00000300A128A113F25B5
:100208000A128A110A128A118B240A128A11C03022
:100218008312031388000A128A113E260A128A11D1
:10022800831203134D08583E840083130008880086
:100238000A128A1130260A128A11831203134F08F0
:10024800583E84008313000888000A128A11302659
:100258000A128A11831203135108583E840083132B
:10026800000888000A128A1130260A128A11862884
:100278008628862886280A128A11122800308312B6
:100288000313A3000130A2008630A100A030A00013
:100298004608A7004508A6004408A5004308A4008E
:1002A8000A128A111B240A128A11831203132008C6
:1002B800AF002F08D5004308AF004408B000450838
:1002C800B1004608B2005508B300B401B501B60143
:1002D8003608A3003508A2003408A1003308A0009E
:1002E8000030A7000130A6008630A500A030A40089
:1002F8000A128A11F3240A128A118312031320099D
:10030800B7002109B8002209B9002309BA00B70AC1
:100318000319B80A0319B90A0319BA0A3708AF0743
:1003280038080318380F99299A29B007390803188B
:10033800390F9F29A029B1073A0803183A0AB207CA
:100348003208BE003108BD003008BC002F08BB00D1
:100358000030A3000030A2002730A1001030A00018
:100368003E08A7003D08A6003C08A5003B08A400DD
:100378000A128A116E220A128A11831203132008A4
:10038800AF002F08CB004B08AF00B0012F08A0002A
:100398003008A1001030A2002730A3000A128A11E9
:1003A8007A250A128A11831203132009B100210940
:1003B800B200B10A0319B20A3B083107C0003C0871
:1003C80003183C0A3207C100E830A0000330A1003E
:1003D8004108A301A3074008A201A2070A128A1133
:1003E800A5230A128A11831203132008AF002F08CD
:1003F800CC004C08AF00B0012F08A0003008A100C5
:10040800E830A2000330A3000A128A117A250A12E2
:100418008A11831203132009B1002109B200B10A1D
:100428000319B20A40083107C00041080318410AFD
:100438003207C1006430A0000030A1004108A301C8
:10044800A3074008A201A2070A128A11A5230A12CB
:100458008A11831203132008AF002F08D6006430D6
:10046800AF002F08A00056080A128A1103260A12A4
:100478008A11FF3A013E831203134007B000300887
:10048800BF000A30A0000030A1003F08AF00B00153
:100498002F08A2003008A3000A128A11A5230A1205
:1004A8008A11831203132008B1003108CE000A30E4
:1004B800AF002F08A0004E080A128A1103260A125C
:1004C8008A11FF3A013E831203133F07B000300838
:1004D800D000080083120313AA01A31F742A752AE7
:1004E800842AA009A109A209A309A00A0319A10A3B
:1004F8000319A20A0319A30AAA010314AA0D842A3C
:10050800A71F872A882A982AA409A509A609A7093E
:10051800A40A0319A50A0319A60A0319A70A013090
:10052800A8002808AA06982A0030AE000030AD00BE
:100538000030AC000030AB00230822042104200462
:100548000319A72AA82AFC2AA9010314A90DBA2A63
:100558000130A8000310A00DA10DA20DA30DA80B3A
:10056800AE2A0130A8002808A907BA2AA31FBD2A65
:10057800BE2AAC2AC02AC02A0130A8000310AB0D3D
:10058800AC0DAD0DAE0DA80BC22A23082702031D22
:10059800D72A22082602031DD72A21082502031D6F
:1005A800D72A20082402031CDA2ADB2AEB2A20088F
:1005B800A4022108031C210FA5022208031C220FF4
:1005C800A6022308031C230FA7022B14EB2A0130D1
:1005D8000310A30CA20CA10CA00CFF3E031DEC2AD7
:1005E8000130A902031DF92AFA2AC02AFC2AFC2A8A
:1005F8002A08031D002B0C2BAB09AC09AD09AE0969
:10060800AB0A0319AC0A0319AD0A0319AE0A0C2B7D
:100618002E08A3002D08A2002C08A1002B08A0007A
:10062800152B08000B1D192B1A2B222B0130C9077B
:100638000318CA0A0030CA070B11222B8B1C252B62
:10064800262B9A2B0130C7070318C80A0030C807A1
:1006580002304806031D322BE4304706031D352BB4
:10066800362B472B0130C307003003180130C4076D
:10067800003003180130C507003003180130C607E1
:10068800C701C801472B00304606031D552B09300A
:100698004506031D552B27304406031D552BC03036
:1006A8004306031D582B592B5C2B0B1209145C2B8A
:1006B8000130F0007008D207D208031D642B652BA7
:1006C8006E2BC901CA010108F0007008FA008B16E8
:1006D8000B116E2B5208013A031D732B742B982BA8
:1006E8000108F0007008FB008B127A08F000F10195
:1006F800F009F109F00A0319F10A4A08F300490858
:10070800F2007208F300F2017B087207F400730824
:100718000318730AF50070087407D30071080318EA
:10072800710A7507D400982B8B109A2B7908FF0053
:1007380078088A0077088400760E8300FE0E7E0E05
:10074800090083120313A601A11FAB2BAC2BB52BF9
:10075800A009A109A00A0319A10AA6010314A60D5C
:10076800B52BA31FB82BB92BC32BA209A309A20A27
:100778000319A30A0130A4002408A606C32BA70165
:10078800A801210820040319CA2BCB2B092CA50189
:100798000314A50DDB2B01300310A00DA10DFF3EA6
:1007A800031DD02B0130A4002408A507DB2BA11FB3
:1007B800DE2BDF2BCF2BE12BE12B01300310A70D14
:1007C800A80DFF3E031DE22B21082302031DEE2B7B
:1007D80020082202031CF12BF22BFA2B2008A2027C
:1007E8002108031CA303A3022714FA2B01300310CA
:1007F800A10CA00CFF3E031DFB2B0130A502031D1D
:10080800062C072CE12B092C092C2608031D0D2C7E
:10081800132CA709A809A70A0319A80A132C280842
:10082800A101A1072708A001A0071A2C0800003081
:1008380083120313AC000030AB000030AA00003074
:10084800A900230822042104200403192C2C2D2C90
:10085800812CAD010314AD0D3F2C0130A80003100D
:10086800A00DA10DA20DA30DA80B332C0130A800DB
:100878002808AD073F2CA31F422C432C312C452CB4
:10088800452C0130A8000310A90DAA0DAB0DAC0D25
:10089800A80B472C23082702031D5C2C22082602DC
:1008A800031D5C2C21082502031D5C2C2008240252
:1008B800031C5F2C602C702C2008A4022108031C48
:1008C800210FA5022208031C220FA6022308031CDD
:1008D800230FA7022914702C01300310A30CA20CBB
:1008E800A10CA00CFF3E031D712C0130AD02031DAD
:1008F8007E2C7F2C452C812C812C2C08A3002B08C6
:10090800A2002A08A1002908A0008A2C0800831246
:1009180003135408A101A1075308A001A00736300A
:10092800A2004A30A3000A128A11A5230A128A11CA
:10093800831203132008A9002908D7006430A000F7
:100948000030A1005708A900AA012908A2002A0816
:10095800A3000A128A11A5230A128A11831203130B
:100968002008AB002B08CD006430A9002908A0009E
:100978004D080A128A1103260A128A11FF3A013E0B
:10098800831203135707AA002A08AC000A30A000F4
:100998000030A1002C08A900AA012908A2002A08F1
:1009A800A3000A128A11A5230A128A1183120313BB
:1009B8002008AB002B08CF000A30A9002908A000A6
:1009C8004F080A128A1103260A128A11FF3A013EB9
:1009D800831203132C07AA002A08D100080000304C
:1009E80083120313AC000030AB000030AA000030C3
:1009F800A900FE2C201C012D022D1A2D2408A90760
:100A0800250803110318013E03190B2DAA07260810
:100A180003110318013E0319122DAB072708031110
:100A28000318013E0319192DAC071A2D0130A8002F
:100A38000310A40DA50DA60DA70DA80B1C2D0130A4
:100A48000310A30CA20CA10CA00CFF3E031D242D27
:100A58002308220421042004031D332D342DFE2CE9
:100A6800352D2C08A3002B08A2002A08A10029086C
:100A7800A0003E2D080083120313A200432D831605
:100A880003178C18482D492D432D4A2D8312031323
:100A98002208831203178D00831203132008831280
:100AA80003178C003F3083120313A100210883161B
:100AB80003178C058312031303108B1F642D652DF8
:100AC800662D03148B13831603170C1555308D00F0
:100AD800AA308D008C140C1183120313031C752D7E
:100AE800762D792D8B17792D792D08008312031314
:100AF800A401A5017F2D201C822D832D892D22087C
:100B0800A4070318A50A2308A50701300310A20D9E
:100B1800A30DFF3E031D8A2D01300310A10CA00C6C
:100B2800FF3E031D912D21082004031D9C2D9D2DA2
:100B38007F2D9E2D2508A101A1072408A001A0074B
:100B4800A52D080083120313A10064008316031760
:100B58008C18AF2DB02DA92DB12D831203132108A8
:100B6800831203178D003F3083120313A00020085F
:100B7800831603178C050C1403100C18031400308B
:100B880003180130831203170C08CA2D0800FA0154
:100B9800FB0183134330840058300A128A11562609
:100BA8000A128A116230FD000630FE004C30FF0048
:100BB800583084000A128A1121260A128A118301E8
:100BC8000A128A111528E73083120313A000033094
:100BD800A10021082004031DF22DF32DF52D022E6E
:100BE800022E0130A0020030031CA103A10221083B
:100BF8002004031D002E012EF52D022E080083125D
:100C08000313A300A201231C0A2E0B2E102E20086A
:100C1800A1002108A207102E0310A00D0310A30C99
:100C2800A308031D182E192E072E1A2E22081C2E73
:100C380008007E088A007F0882000A128A111D2691
:100C48000A128A118000840A04087D0603190034F8
:100C5800FF0A0319FE0A212E8312031385160512B3
:100C680085110A128A11E7250A128A1183120313C1
:100C780085150800831203138512051285110A12BF
:100C88008A11E7250A128A118312031385150800B1
:100C98003034313432343334343435343634373410
:100CA8003834393464008001840A04060319003496
:040CB8000406572EA9
:02400E0029FF88
:10420000B0002700090000000000000000000000CE
:00000001FF
