:060000000A128A11122809
:10000800FE00030EF1000408F2000A08F300831250
:1000180003137F08F4000A128A118F2C0A128A111E
:10002800D82C003083120313A3000130A2008630BD
:10003800A100A030A0003E08A7003D08A6003C088B
:10004800A5003B08A4000A128A11A7230A128A11E4
:10005800831203132008AD002D08CB003B08AD0028
:100068003C08AE003D08AF003E08B0004B08B100A8
:10007800B201B301B4013408A3003308A200320866
:10008800A1003108A0000030A7000130A60086308A
:10009800A500A030A4000A128A1117240A128A1196
:1000A800831203132009B5002109B6002209B700FD
:1000B8002309B800B50A0319B60A0319B70A0319C0
:1000C800B80A3508AD0736080318360F6C286D28AE
:1000D800AE0737080318370F72287328AF07380898
:1000E8000318380AB0073008C2002F08C1002E08CC
:1000F800C0002D08BF000030A3000030A200273048
:10010800A1001030A0004208A7004108A60040083E
:10011800A5003F08A4000A128A11A7230A128A110F
:10012800831203132008AD002D08C5004508AD0053
:10013800AE012D08A0002E08A1001030A200273023
:10014800A3000A128A1163240A128A118312031364
:100158002009AF002109B000AF0A0319B00A3F080F
:100168002F07C30040080318400A3007C400E830CE
:10017800A0000330A1004408A301A3074308A2017B
:10018800A2070A128A1131230A128A118312031351
:100198002008AD002D08C6004608AD00AE012D08A8
:1001A800A0002E08A100E830A2000330A3000A1224
:1001B8008A1163240A128A11831203132009AF00DB
:1001C8002109B000AF0A0319B00A43082F07BF007E
:1001D80044080318440A3007C000C101C01BC1030A
:1001E8004108C2000030A3000030A2000030A10086
:1001F8006430A0004208A7004108A6004008A500F6
:100208003F08A4000A128A11A7230A128A1183122E
:1002180003132008AD002D08C7004708AD00AE0144
:100228002D08A0002E08A1006430A2000030A30011
:100238000A128A1163240A128A11831203132009ED
:10024800AF002109B000AF0A0319B00A3F082F0711
:10025800C30040080318400A3007C4000A30A00051
:100268000030A1004408A301A3074308A201A20784
:100278000A128A1131230A128A11831203132008E1
:10028800AD002D08CC000A30AD002D08F5004C0853
:100298000A128A11F4240A128A11FF3A013E8312C3
:1002A80003134307AE002E08C8000800413083122C
:1002B80003139F008E30831603139F0001308500BF
:1002C80088010A128A110E250A128A110130831236
:1002D800031388000A128A1159250A128A11383024
:1002E8008312031388000A128A1159250A128A11E7
:1002F8000C308312031388000A128A1159250A1236
:100308008A1106308312031388000A128A115925AC
:100318000A128A118B170B17831603138C14831276
:1003280003138C100C137F309200FF3083160313D5
:1003380092009E29003083120313AF000030AE00F4
:100348000330AD00FF30AC004908A0004A08A10006
:10035800A201A3010030A7000730A600A130A50024
:100368002030A4000A128A1117240A128A11831253
:1003780003132308B3002208B2002108B1002008A3
:10038800B0000A128A1189220A128A1183120313F1
:100398002F08BE002E08BD002D08BC002C08BB008D
:1003A8000A128A1115200A128A1180308312031347
:1003B80088000A128A1159250A128A118312031316
:1003C8004B084D3E84008313000888000A128A11E6
:1003D8004B250A128A112E308312031388000A1241
:1003E8008A114B250A128A118312031345084D3EC0
:1003F80084008313000888000A128A114B250A1208
:100408008A118312031346084D3E840083130008A3
:1004180088000A128A114B250A128A1183120313C3
:1004280047084D3E84008313000888000A128A1189
:100438004B250A128A11831203134C084D3E84007F
:100448008313000888000A128A114B250A128A11A0
:100458008312031348084D3E840083130008880064
:100468000A128A114B250A128A1156308312031375
:1004780088000A128A114B250A128A11C030831289
:10048800031388000A128A1159250A128A11831245
:1004980003134A084D3E84008313000888000A129B
:1004A8008A114B250A128A11831203134908BA00CC
:1004B80004300310BA0CFF3E031D5D2A3A084D3E76
:1004C80084008313000888000A128A114B250A1237
:1004D8008A118312031349080F394D3E8400831390
:1004E800000888000A128A114B250A128A1148301E
:1004F8008312031388000A128A114B250A128A11E3
:100508009E299E290A128A11122883120313B50103
:10051800AF1F8F2A902A9F2AAC09AD09AE09AF09EF
:10052800AC0A0319AD0A0319AE0A0319AF0AB501DB
:100538000314B50D9F2AB31FA22AA32AB32AB00910
:10054800B109B209B309B00A0319B10A0319B20A09
:100558000319B30A0130F6007608B506B32A00304D
:10056800B9000030B8000030B7000030B6002F08DE
:100578002E042D042C040319C22AC32A172BB401F4
:100588000314B40DD52A0130F6000310AC0DAD0DDF
:10059800AE0DAF0DF60BC92A0130F6007608B40788
:1005A800D52AAF1FD82AD92AC72ADB2ADB2A013045
:1005B800F6000310B60DB70DB80DB90DF60BDD2A10
:1005C8002F083302031DF22A2E083202031DF22AD5
:1005D8002D083102031DF22A2C083002031CF52ACB
:1005E800F62A062B2C08B0022D08031C2D0FB10289
:1005F8002E08031C2E0FB2022F08031C2F0FB30264
:100608003614062B01300310AF0CAE0CAD0CAC0C3D
:10061800FF3E031D072B0130B402031D142B152BBD
:10062800DB2A172B172B3508031D1B2B272BB60985
:10063800B709B809B909B60A0319B70A0319B80AF4
:100648000319B90A272B3908AF003808AE00370854
:10065800AD003608AC00302B080083120313A50147
:10066800A11F372B382B412BA009A109A00A031978
:10067800A10AA5010314A50D412BA31F442B452B4B
:100688004F2BA209A309A20A0319A30A0130F500F6
:100698007508A5064F2BA601A701210820040319F8
:1006A800562B572B952BA4010314A40D672B01304F
:1006B8000310A00DA10DFF3E031D5C2B0130F500BA
:1006C8007508A407672BA11F6A2B6B2B5B2B6D2B5F
:1006D8006D2B01300310A60DA70DFF3E031D6E2BD9
:1006E80021082302031D7A2B20082202031C7D2BDC
:1006F8007E2B862B2008A2022108031CA303A30239
:100708002614862B01300310A10CA00CFF3E031DFC
:10071800872B0130A402031D922B932B6D2B952B55
:10072800952B2508031D992B9F2BA609A709A60A17
:100738000319A70A9F2B2708A101A1072608A001D2
:10074800A007A62B0800003083120313AB0000306B
:10075800AA000030A9000030A800230822042104C0
:1007680020040319B82BB92B0D2CAC010314AC0DC4
:10077800CB2B0130F5000310A00DA10DA20DA30D88
:10078800F50BBF2B0130F5007508AC07CB2BA31F69
:10079800CE2BCF2BBD2BD12BD12B0130F500031045
:1007A800A80DA90DAA0DAB0DF50BD32B2308270215
:1007B800031DE82B22082602031DE82B2108250229
:1007C800031DE82B20082402031CEB2BEC2BFC2B2D
:1007D8002008A4022108031C210FA5022208031CDB
:1007E800220FA6022308031C230FA7022814FC2BA0
:1007F80001300310A30CA20CA10CA00CFF3E031D9A
:10080800FD2B0130AC02031D0A2C0B2CD12B0D2C17
:100818000D2C2B08A3002A08A2002908A1002808EB
:10082800A000162C0800003083120313AB00003020
:10083800AA000030A9000030A800222C201C252C7A
:10084800262C3E2C2408A807250803110318013E6E
:1008580003192F2CA907260803110318013E0319B1
:10086800362CAA07270803110318013E03193D2C4B
:10087800AB073E2C0130F5000310A40DA50DA60D05
:10088800A70DF50B402C01300310A30CA20CA10CF2
:10089800A00CFF3E031D482C230822042104200439
:1008A800031D572C582C222C592C2B08A3002A083E
:1008B800A2002908A1002808A000622C0800F50160
:1008C800F601662C83120313201C6B2C6C2C722CE3
:1008D8002208F5070318F60A2308F6070130031063
:1008E800A20DA30DFF3E031D732C01300310A10CB4
:1008F800A00CFF3E031D7A2C21082004031D852C23
:10090800862C662C872C7608A101A1077508A00102
:10091800A0078E2C08008C1045309F008E3083165F
:1009280003139F00972C83120C1B9B2C9C2C9E2C32
:10093800972C972C1E08F0007008CA008316031322
:100948001E08F000700883120313C9000C13740802
:10095800FF0073088A0072088400710E8300FE0E7F
:100968007E0E090004308A000408840A82070034D5
:1009780000340034003400345034C33400340034BC
:10098800A03486340134003440340D340334003448
:10099800E03493340434003480341A340634003498
:1009A8002034A13407340034F701F80183133B30B5
:1009B80084004D300A128A1167250A128A115D30A7
:1009C800FD000530FE003B30FF004D3084000A1268
:1009D8008A112C250A128A1183010A128A115A29AE
:1009E80083120313A100A001211CFB2CFC2C012D58
:1009F8007508F6007608A007012D0310F50D031001
:100A0800A10CA108031D092D0A2DF82C0B2D200877
:100A18000D2D0800E730F5000330F6007608750460
:100A2800031D172D182D1A2D272D272D0130F502FE
:100A38000030031CF603F60276087504031D252D05
:100A4800262D1A2D272D08007E088A007F0882008F
:100A58000A128A1128250A128A118000840A0408B9
:100A68007D0603190034FF0A0319FE0A2C2D3034C1
:100A7800313432343334343435343634373438342A
:100A8800393441344234433444344534463483128F
:100A980003138516051285110A128A110E250A12EA
:100AA8008A11831203138515080083120313851214
:100AB800051285110A128A110E250A128A1183124B
:100AC80003138515080064008001840A04060319CD
:060AD80000340406682D45
:02400E0029FF88
:00000001FF
