:060000000A128A11122809
:10000800FE00030E83120313C8000408C9000A087F
:10001800CA007F08CB000A168A153E2A0A168A15D6
:100028007B2A831603172E082D042C0403191D2878
:100038001E2828292C0883160313B40083160317D7
:100048002D0883160313B500831603172E0883168D
:100058000313B6000A168A155A270A128A1183163C
:1000680003133708360435043404031D3C283D289F
:100078002829831603172908803AFF0080307F0259
:10008800031D482802302802031C4B284C28282925
:100098004D28831603171F0883160313A000831621
:1000A8000317200883160313A100831603172108DA
:1000B80083160313A2007030A3008930A4004030D7
:1000C800A5000A168A150E250A128A1103186D282A
:1000D8006E287728F73083160317A8070318A90A8C
:1000E800FF30A9078028F83083160317A8070318DC
:1000F800A90AFF30A907802828080A128A15292585
:100108000A128A11831603135208831603179F00D5
:1001180083160313530883160317A00083160313CB
:10012800540883160317A100D9282C088316031333
:10013800A000831603172D0883160313A100831646
:1001480003172E0883160313A200831603171F082C
:1001580083160313A30083160317200883160313BB
:10016800A40083160317210883160313A5000A1693
:100178008A1142250A128A1183160313230883164B
:1001880003179D00831603132208831603179C0088
:10019800831603132108831603179B008316031382
:1001A8002008831603179A0019292C0883160313AD
:1001B800A000831603172D0883160313A1008316C6
:1001C80003172E0883160313A200831603171F08AC
:1001D80083160313A300831603172008831603133B
:1001E800A40083160317210883160313A5000A1613
:1001F8008A1184220A128A1183160313230883168C
:1002080003179D00831603132208831603179C0007
:10021800831603132108831603179B008316031301
:100228002008831603179A0019291D08A5001C0821
:10023800A4001B08A3001A08A2000030AC0000307C
:10024800AD000030AE00A629831603172C088316CC
:100258000313B400831603172D0883160313B50080
:10026800831603172E0883160313B6000A168A1579
:100278005A270A128A11831603133708831603179D
:10028800A50083160313360883160317A4008316E4
:100298000313350883160317A300831603133408C2
:1002A80083160317A200250883160313AB008316D1
:1002B8000317240883160313AA00831603172308B9
:1002C80083160313A9008316031722088316031342
:1002D800A8000A168A151F230A128A118316031307
:1002E8002808DF002908E0002A08E1008316031720
:1002F8002C0883160313E200831603172D088316B0
:100308000313E300831603172E0883160313E40070
:100318000A168A155C220A128A11831603135F08CB
:1003280083160317AC00831603136008831603179C
:10033800AD0083160313610883160317AE00A801E6
:10034800A901A629B2010314B20D32080A3A031D05
:10035800AE29AF29B129F429F429320894000130D3
:100368000310940DFF3E031DB4290310140D013E24
:1003780084000A168A110A200A128A1195000A16A0
:100388008A110A200A128A1196000A168A110A206E
:100398000A128A1197000A168A110A200A128A116B
:1003A800980018082502031DE32917082402031DD5
:1003B800E32916082302031DE3291508220203185E
:1003C800E629E729E929F429F429013094001408D9
:1003D800B20732080A3A031DF229F329B129F42990
:1003E8002F083207940030080318300A003EB21B69
:1003F800FF3E950028081407960029080318290AC3
:10040800150797001608AA021708031CAB03AB02CE
:1004180030082F040319112A122A182AFF30AA07B4
:100428000318AB0AFF30AB070330260594000030F1
:1004380027059500150814040319232A242A2B2AB2
:10044800FF30AA070318AB0AFF30AB072B2A261D7B
:100458002E2A2F2A692A452A452A3030831603175F
:100468009400310884001408831780000130940038
:100478001408B107FF30AA070318AB0AFF30AB070F
:10048800452A2B08803AFF0080307F02031D4E2A40
:1004980001302A020318512A522A312A042B042B2C
:1004A800692A203083160317940031088400140841
:1004B80083178000013094001408B107FF30AA07A1
:1004C8000318AB0AFF30AB07692A831603172B08FA
:1004D800803AFF0080307F02031D742A01302A020F
:1004E8000318772A782A552A792A0330831603179E
:1004F80026059400003027059500150814040319F3
:10050800862A872A042B2D30940031088400140889
:1005180083178000013094001408B107042B042BC2
:10052800042B003083160313B1000030B0000030F4
:10053800AF000A30AE00831603173208940001306A
:100548000310940DFF3E031DA42A0310140D013E51
:1005580084000A168A110A200A128A1183160313C4
:10056800A0000A168A110A200A128A11A1000A1686
:100578008A110A200A128A11A2000A168A110A2070
:100588000A128A11A300831603172508831603137A
:10059800A70083160317240883160313A6008316DF
:1005A8000317230883160313A500831603172208CD
:1005B80083160313A4000A168A157C250A128A11C9
:1005C800831603132308B5002208B4002108B300DA
:1005D8002008B2000A168A1548240A128A118316BE
:1005E80003132E08303E8316031795003108840044
:1005F800150883178000013094001408B107042BF4
:10060800FF308316031794001408B2073208FF3A24
:10061800031D0F2B102B952A262B262B30308316E3
:1006280003179400310884001408831780000130F0
:1006380094001408B107FF30A8070318A90AFF306F
:10064800A907262B2908803AFF0080307F02031D66
:100658002F2B013028020318322B332B122B342B6B
:10066800831603173008803AFF0080307F02031D8D
:100678003F2B09302F02031C422B432B4A2B0830F7
:100688008316031794001408B200502B831603171F
:100698002F0894001408B200320894009501941BA6
:1006A80095031408AF021508031CB003B002320802
:1006B800031D5F2B6B2B2E30940031088400140827
:1006C80083178000013094001408B1076B2B32089F
:1006D8000A128A1529250A128A1183160313520849
:1006E800C5005308C6005408C700831603172C0812
:1006F80083160313C200831603172D0883160313EA
:10070800C300831603172E0883160313C4000A16A2
:100718008A1154240A128A11831603134208B4005A
:100728004308B5004408B6000A168A155A270A1263
:100738008A1183160313370883160317A500831637
:100748000313360883160317A4008316031335080A
:1007580083160317A300831603133408831603179D
:10076800A2007F2C003083160313B1000030B000C4
:100778000030AF000A30AE00831603173208940029
:1007880001300310940DFF3E031DC52B0310140DFB
:10079800013E84000A168A110A200A128A11831659
:1007A8000313A0000A168A110A200A128A11A1004E
:1007B8000A168A110A200A128A11A2000A168A1138
:1007C8000A200A128A11A300831603172508831624
:1007D8000313A70083160317240883160313A60020
:1007E80083160317230883160313A500831603171C
:1007F800220883160313A4000A168A157C250A12F8
:100808008A11831603132308B5002208B4002108AF
:10081800B3002008B2000A168A1548240A128A1161
:10082800831603132E08303E8316031795003108EC
:100838008400150883178000013094001408B1075C
:100848003208940001300310940DFF3E031D272C3D
:100858000310140D013E84000A168A110A200A1298
:100868008A1183160313AE000A168A110A200A1287
:100878008A11AF000A168A110A200A128A11B000DA
:100888000A168A110A200A128A11B1008316031760
:10089800250883160313B500831603172408831647
:1008A8000313B40083160317230883160313B30036
:1008B80083160317220883160313B2000A168A1533
:1008C80048240A128A118316031331088316031762
:1008D800A50083160313300883160317A400831694
:1008E80003132F0883160317A300831603132E0878
:1008F80083160317A200FF3094001408B2073208C9
:10090800FF3A031D882C892CB62B9D2C9D2C30304A
:100918009400310884001408831780000130940083
:100928001408B107FF30AF070318B00AFF30B0074B
:100938009D2C30082F04031DA22CA32C8B2CC72E12
:10094800C72E1E088400831700089400840A000834
:1009580095001408A2001508A3000030A31BFF305F
:10096800A400A5000230940014089E07A51FBD2C02
:10097800BE2CCE2C0330A6040030A704A209A3097C
:10098800A409A509A20A0319A30A0319A40A0319A9
:10099800A50ACE2C30082F04031DD32CD42CE32C0D
:1009A8002508240423042204031DDB2CDC2CE32C5F
:1009B8000130AF070318B00A0030B007E32CB201CA
:1009C8000314B20D32080A3A031DEB2CEC2CEE2C62
:1009D800312D312D3208940001300310940DFF3E63
:1009E800031DF12C0310140D013E84000A168A1110
:1009F8000A200A128A1195000A168A110A200A1278
:100A08008A1196000A168A110A200A128A1197007A
:100A18000A168A110A200A128A1198001808250253
:100A2800031D202D17082402031D202D160823025C
:100A3800031D202D150822020318232D242D262DF1
:100A4800312D312D013094001408B20732080A3ACA
:100A5800031D2F2D302DEE2C312D320894009501D9
:100A6800941B95031508803A96003008803A1602C0
:100A7800031D402D2F0814020318432D442D4B2D20
:100A8800831603172F0894001408B200692D8316E3
:100A98000317320894009501941B95033008803A97
:100AA80096001508803A1602031D5C2D14082F02C3
:100AB80003185F2D602D692D831603173208AF00C8
:100AC800B001AF1BB003692D692D831603172B08DE
:100AD8002A040319702D712D842D033026059400E6
:100AE8000030270595001508140403197C2D7D2D69
:100AF800842DFF30AA070318AB0AFF30AB07842DFB
:100B0800271F872D882DA52D3008803A94002B08A3
:100B1800803A1402031D922D2A082F020318952DDE
:100B2800962D9F2D831603172F08AA023008031C41
:100B3800AB03AB02A52D83160317AA01AB01A52DA4
:100B4800A52D320894009501941B95031508803A49
:100B580096002B08803A1602031DB42D2A081402A9
:100B68000318B72DB82DC62D831603173208940025
:100B78009501941B95031408AA021508031CAB03DE
:100B8800AB02CB2D83160317AA01AB01CB2D261D73
:100B9800CE2DCF2D082E03302605940000302705D2
:100BA8009500150814040319DA2DDB2DE72D2D30D7
:100BB80094003108840014088317800001309400E1
:100BC8001408B107E72D2B082A040319EC2DED2D85
:100BD800B52EEE2D303094003108840014088317A8
:100BE8008000013094001408B107FF30AA070318E9
:100BF800AB0AFF30AB072B082A04031D042E052E71
:100C0800EE2DB52EB52EB52E2B082A0403190D2E60
:100C18000E2E282E0F2E2030940031088400140840
:100C280083178000013094001408B107FF30AA0729
:100C38000318AB0AFF30AB072B082A04031D252E27
:100C4800262E0F2E282E282E03302605940000303D
:100C580027059500150814040319332E342EB52ED4
:100C68002D30940031088400140883178000013067
:100C780094001408B107B52EB52EB52E0030831692
:100C88000313B1000030B0000030AF000A30AE00EE
:100C9800831603172F08940001300310940DFF3EAC
:100CA800031D512E0310140D013E84000A168A11EB
:100CB8000A200A128A1183160313A0000A168A1141
:100CC8000A200A128A11A1000A168A110A200A1299
:100CD8008A11A2000A168A110A200A128A11A30090
:100CE80083160317250883160313A7008316031713
:100CF800240883160313A6008316031723088316F4
:100D08000313A50083160317220883160313A400F0
:100D18000A168A157C250A128A11831603132308DA
:100D2800B5002208B4002108B3002008B2000A1652
:100D38008A1548240A128A11831603132E08303E96
:100D48008316031795001508B2003208940031087D
:100D58008400140883178000013094001408B10738
:100D6800B52EFF30AF070318B00AFF30B007FF30C9
:100D78003006031DC12EFF302F06031DC42EC52EBD
:100D8800422EC72EC72E01309007FF30100784006F
:100D98000A168A110A200A128A1194001408B2004D
:100DA800B208031DD82EDB2E0A128A11ED2EDD2E75
:100DB800DD2E3108840083178001E22E0800831697
:100DC8000317B1009130940014089E000A128A118A
:100DD800C72E3208253A0319F22EF32EFF2E3208B9
:100DE80094003108840014088317800001309400AF
:100DF8001408B107EA2EAA01AB01A601A7010C2F1E
:100E08000C2F261501309400140890070C2F192F69
:100E1800100884000A168A110A200A128A11303A28
:100E28000319052F192F192F0C2F100884000A16E3
:100E38008A110A200A128A110A128A11E8270A124C
:100E48008A11031C282F292F7B2F83160317AA0129
:100E5800AB012E2F831603172B0883160313A1014A
:100E6800A107831603172A0883160313A001A007F6
:100E78000A30A2000030A3000A168A15C7220A12F7
:100E88008A1183160317100884000A168A110A208B
:100E98000A128A1183160313200783160317940076
:100EA8000030031801308316031321078316031734
:100EB80095001408D03EAA0015080318013EFF3E0D
:100EC800AB000130940014089007100884000A163B
:100ED8008A110A200A128A110A128A11E8270A12AC
:100EE8008A110318782F792F2E2F7B2F7B2F8316AB
:100EF8000317100884000A168A110A200A128A1198
:100F08002E3A031D882F892FE12F271701309400CF
:100F180014089007AF01B001CD2F831603173008CE
:100F280083160313A101A107831603172F0883163D
:100F38000313A001A0070A30A2000030A3000A167C
:100F48008A15C7220A128A1183160317100884000B
:100F58000A168A110A200A128A1183160313200717
:100F68008316031794000030031801308316031307
:100F780021078316031795001408D03EAF00150803
:100F88000318013EFF3EB00001309400140890079A
:100F9800CD2F100884000A168A110A200A128A1115
:100FA8000A128A11E8270A128A110318DC2FDD2F8A
:100FB800912F0A128A150B2BDD2F83160317AF0109
:100FC800B0012716DD2FDD2F83160313A100A00122
:100FD8003A3021020318F12FF22FFC2F3030210272
:100FE800031CF72FF82FFC2FA0010314A00DFC2FD2
:060FF800200CFE2F080092
:10100600831603135208D8005308D9005408DA008F
:101016000310590D5A0DDB005B08DE005508D80099
:101026005608D9005708DA000310590D5A0DDB008F
:101036005B08DD005E08031D212832285D085E027C
:101046000318262827283A285E03FF3A5D07D800AA
:1010560019305802031C302831283A2832285508FE
:10106600D2005608D3005708D400482948295D08FD
:10107600031D3E284E285E085D02031843284428B7
:101086004F285D03FF3A5E07D80019305802031C4B
:101096004D284E284F2848290630D8005808DC002D
:1010A600D41F562857285828DC17D71F5B285C28DA
:1010B6005D285C17D317FF30D205FF30D30500300B
:1010C600D405D617FF30D505FF30D6050030D70535
:1010D6005D085E02031870287128A2287228013064
:1010E6000310D50DD60DD70DFF3E031D7328013015
:1010F600DD025D085E060319812882289A280130E0
:10110600DC025C080739031D89288A2872289A2878
:101116009A289A2801300310D40CD30CD20CFF3E27
:10112600031D8E280130D8005808DE079A285E086D
:101136005D06031D9F28A0288D28D928D9285E087A
:101146005D020318A728A828D928A928013003106A
:10115600D20DD30DD40DFF3E031DAA280130DE02A9
:101166005D085E060319B828B928D1280130DC02CB
:101176005C080739031DC028C128A928D128D12811
:10118600D12801300310D70CD60CD50CFF3E031D19
:10119600C5280130D8005808DD07D1285E085D064D
:1011A600031DD628D728C428D928D928DC1FDC282F
:1011B600DD28EE28FF30D206FF30D306FF30D406F6
:1011C6000130D207003003180130D307003003186E
:1011D6000130D407EE285C1FF128F2280329FF30DE
:1011E600D506FF30D606FF30D7060130D5070030CA
:1011F60003180130D607003003180130D70703293A
:10120600DC015208D507530803110318530A0319C2
:101216000D29D607540803110318540A0319142973
:10122600D707D71F172918292C29FF30D506FF30D5
:10123600D606FF30D7060130D50700300318013037
:10124600D607003003180130D707DC010314DC0D84
:101256002C295508A0005608A1005708A2005E08D0
:10126600D8005808A3005C08D9005908A4000A163B
:101276008A15DD260A128A15831603132008D20062
:101286002108D3002208D400482908008316031336
:10129600EE006E306E02031C51295229372A0330A4
:1012A600E2006208B0000A30A7000030A8006E080D
:1012B600E300E4016308A2006408A3006430A00010
:1012C6000030A1000A168A15A6240A128A1583166A
:1012D60003132108AA01AA072008A901A9070A16CB
:1012E6008A15EC250A128A15831603132708093E68
:1012F6000A168A1508220A128A15293E84000A1639
:101306008A110A200A128A1583160313C2000A16C6
:101316008A110A200A128A15C3000A168A110A209F
:101326000A128A15C4000330E5006508B00064306F
:10133600A7000030A8006E08E600E7016608A900CD
:101346006708AA000A168A15EC250A128A1583165A
:1013560003132708123E0A168A1508220A128A154E
:10136600293E84000A168A110A200A128A15831653
:101376000313C5000A168A110A200A128A15C60026
:101386000A168A110A200A128A15C7000A168A1135
:1013960054240A128A15831603134208EB004308E5
:1013A600EC004408ED000330E2006208B0006E086D
:1013B600E300E4016308A2006408A3000A30A00069
:1013C6000030A1000A168A15A6240A128A15831669
:1013D600031320080A168A1508220A128A15293EBE
:1013E60084000A168A110A200A128A158316031324
:1013F600C2000A168A110A200A128A15C3000A16A2
:101406008A110A200A128A15C4006B08C5006C08E6
:10141600C6006D08C7000A168A1154240A128A15D6
:10142600831603134208E8004308E9004408EA006B
:101436000030C2000030C3003F30C4006808C50059
:101446006908C6006A08C7000A168A1154240A12D7
:101456008A15831603134208DF004308E000440898
:10146600E100FF2AFF2ACB2A0B306E02031C3C2A1E
:101476003D2ACB2A0330E2006208B0006E08E30082
:10148600E4016308A2006408A3000A30A00000304B
:10149600A1000A168A15A6240A128A1583160313B2
:1014A60020080A168A1508220A128A15293E84007F
:1014B6000A168A110A200A128A1583160313C20015
:1014C6000A168A110A200A128A15C3000A168A11F8
:1014D6000A200A128A15C4000330E5006508B00028
:1014E6000A30A7000030A8006E08E600E70166088B
:1014F600A9006708AA000A168A15EC250A128A1599
:10150600831603132708093E0A168A1508220A12AB
:101516008A15293E84000A168A110A200A128A159B
:1015260083160313C5000A168A110A200A128A15A1
:10153600C6000A168A110A200A128A15C7000A1658
:101546008A1154240A128A15831603134208EB00E3
:101556004308EC004408ED000030C2000030C30030
:101566003F30C4006B08C5006C08C6006D08C70094
:101576000A168A1154240A128A158316031342087E
:10158600DF004308E0004408E100FF2AFF2ACB2AD7
:101596000030C2000030C3003F30C4000330E20018
:1015A6006208B0006E080A168A1508220A128A1501
:1015B600293E84000A168A110A200A128A15831601
:1015C6000313C5000A168A110A200A128A15C600D4
:1015D6000A168A110A200A128A15C7000A168A11E3
:1015E60054240A128A15831603134208DF0043089F
:1015F600E0004408E100FF2A08000A128A11DD2EE5
:101606002715252B252B252B0A128A11C72E252BAC
:101616000130831603179007FF30100784000A165F
:101626008A110A200A128A15B200003A0319002B01
:10163600643A0319252B023A0319032B0F3A0319AF
:10164600252B072B0030260594000730270595002B
:10165600150814040319302B332B0A128A11A52CF2
:10166600271E362B372B3C2B0630AF000030B00040
:101676003C2B1E08840083170008AC00840A00086F
:10168600AD00840A0008AE000330940014089E07DB
:101696002C0883160313A000831603172D08831640
:1016A6000313A100831603172E0883160313A20043
:1016B6000030A3000030A4000030A5000A168A15E9
:1016C6000E250A128A150318692B6A2B982B831686
:1016D60003172C0883160313A000831603172D087F
:1016E60083160313A100831603172E08831603130C
:1016F600A2000A168A1593210A128A158316031365
:10170600200883160317AC008316031321088316DB
:101716000317AD0083160313220883160317AE00C2
:101726000330A6040030A704982B83160317A801DC
:10173600A9012E082D042C040319A22BA32BCD2CB2
:10174600AC308400831700089400840A00089500D2
:10175600840A00089600840A000897000F300310D8
:10176600970C960C950C940CFF3E031DB22BFF3084
:10177600140598000030150599001808823EA80047
:1017860019080318013EFF3EA900FF30A8070318F9
:10179600A90AFF30A907033083160313A0000030FF
:1017A600A10083160317290883160313A301A307B1
:1017B60083160317280883160313A201A2070A1625
:1017C6008A15C7220A128A1583160313210883165F
:1017D6000317A901A9078316031320088316031705
:1017E600A801A8070A3083160313A7000030A80033
:1017F60083160317290883160313AA01AA0783165B
:101806000317280883160313A901A9070A168A15C0
:10181600EC250A128A158316031328088316031764
:10182600A901A90783160313270883160317A8011E
:10183600A807A91F1F2C202C272CFF30A807031848
:10184600A90AFF30A907272C2803FF3A0A128A158E
:1018560029250A128A1583160313520883160317BD
:101866009F0083160313530883160317A0008316DD
:101876000313540883160317A1002C0883160313B9
:10188600C200831603172D0883160313C30083169D
:1018960003172E0883160313C400831603171F08A5
:1018A60083160313C5008316031720088316031334
:1018B600C60083160317210883160313C7000A16EA
:1018C6008A1154240A128A158316031342088316B2
:1018D60003179F0083160313430883160317A000FC
:1018E60083160313440883160317A1001F088316E3
:1018F6000313A00083160317200883160313A10001
:1019060083160317210883160313A2000030A300D1
:101916008030A4003F30A5000A168A150E250A124B
:101926008A150318972C982CA12CFF3083160317C1
:10193600A8070318A90AFF30A907CD2C8316031799
:101946001F0883160313A0008316031720088316A7
:101956000313A10083160317210883160313A2009D
:101966000030A3002030A4004130A5000A168A15D5
:101976000E250A128A15031CC12CC22CCD2C01304F
:1019860083160317A8070318A90A0030A907CD2C48
:10199600CD2CCD2C831603173008803AFF008030FB
:1019A6007F02031DD82C0D302F020318DB2CDC2CF4
:1019B600162D831603172F080A128A1549210A12B3
:1019C6008A15831603135F08D2006008D3006108E6
:1019D600D400831603172C0883160313D500831629
:1019E60003172D0883160313D600831603172E0834
:1019F60083160313D7000A128A1503200A128A15C2
:101A060083160313520883160317AC0083160313B9
:101A1600530883160317AD00831603135408831661
:101A26000317AE00162D831603172908803AFF0008
:101A360080307F02031D212D0A3028020318262D2F
:101A46000A128A1115280A128A114D2883160313C1
:101A5600DA00DA1F2F2D302D992EDA09DA0A5A0804
:101A6600803A123E031C382D392DFF2D0330D50048
:101A76005508B0000A30A7000030A8005A08A20096
:101A8600A301A21BA3036430A0000030A1000A1624
:101A96008A15A6240A128A15831603132108AA0199
:101AA600AA072008A901A9070A168A15EC250A1211
:101AB6008A15831603132708093E0A168A15082273
:101AC6000A128A15293E84000A168A110A200A1269
:101AD6008A1583160313C2000A168A110A200A12EF
:101AE6008A15C3000A168A110A200A128A15C4002A
:101AF6000330D6005608B0006430A7000030A800B6
:101B06005A08A900AA01A91BAA030A168A15EC25D8
:101B16000A128A15831603132708123E0A168A1517
:101B260008220A128A15293E84000A168A110A20FA
:101B36000A128A1583160313C5000A168A110A208B
:101B46000A128A15C6000A168A110A200A128A156E
:101B5600C7000A168A1154240A128A15831603131B
:101B66004208D7004308D8004408D9000330D500FE
:101B76005508B0005A08A200A301A21BA3030A300D
:101B8600A0000030A1000A168A15A6240A128A159A
:101B96008316031320080A168A1508220A128A15C4
:101BA600293E84000A168A110A200A128A1583160B
:101BB6000313C2000A168A110A200A128A15C300E4
:101BC6000A168A110A200A128A15C4005708C50087
:101BD6005808C6005908C7000A168A1154240A1262
:101BE6008A15831603134208D2004308D30044081B
:101BF600D400FF2FFF2F772E5A08803A753E031C1C
:101C0600052E062E772E0330D5005508B0005A084B
:101C1600A200A301A21BA3030A30A0000030A1006A
:101C26000A168A15A6240A128A1583160313200893
:101C36000A168A1508220A128A15293E84000A16EF
:101C46008A110A200A128A1583160313C2000A167D
:101C56008A110A200A128A15C3000A168A110A2056
:101C66000A128A15C4000330D6005608B0000A309E
:101C7600A7000030A8005A08A900AA01A91BAA03B8
:101C86000A168A15EC250A128A15831603132708E5
:101C9600093E0A168A1508220A128A15293E840068
:101CA6000A168A110A200A128A1583160313C5001A
:101CB6000A168A110A200A128A15C6000A168A11FD
:101CC6000A200A128A15C7000A168A1154240A1213
:101CD6008A15831603134208D2004308D30044082A
:101CE600D400FF2FFF2F772E0330D5005508B00004
:101CF6005A080A168A1508220A128A15293E8400ED
:101D06000A168A110A200A128A1583160313D200AC
:101D16000A168A110A200A128A15D3000A168A118F
:101D26000A200A128A15D400FF2FFF2F5A08803A7C
:101D3600123E031C9F2EA02E662F0330D500550899
:101D4600B0000A30A7000030A8005A08A200A3017C
:101D5600A21BA3036430A0000030A1000A168A1556
:101D6600A6240A128A15831603132108AA01AA07B4
:101D76002008A901A9070A168A15EC250A128A1550
:101D8600831603132708093E0A168A1508220A1223
:101D96008A15503E84000A168A110A200A128A15EC
:101DA60083160313C2000A168A110A200A128A151C
:101DB600C3000A168A110A200A128A15C4000330C3
:101DC600D6005608B0006430A7000030A8005A08B4
:101DD600A900AA01A91BAA030A168A15EC250A124C
:101DE6008A15831603132708123E0A168A15082237
:101DF6000A128A15503E84000A168A110A200A120F
:101E06008A1583160313C5000A168A110A200A12B8
:101E16008A15C6000A168A110A200A128A15C700F0
:101E26000A168A1154240A128A15831603134208C5
:101E3600D7004308D8004408D9000330D500550818
:101E4600B0005A08A200A301A21BA3030A30A000F7
:101E56000030A1000A168A15A6240A128A158316CE
:101E6600031320080A168A1508220A128A15503EFC
:101E760084000A168A110A200A128A158316031389
:101E8600C2000A168A110A200A128A15C3000A1607
:101E96008A110A200A128A15C4005708C500580874
:101EA600C6005908C7000A168A1154240A128A1550
:101EB600831603134208D2004308D3004408D40013
:101EC600FF2FFF2FDE2F5A08803A753E031C6C2F1A
:101ED6006D2FDE2F0330D5005508B0005A08A2003A
:101EE600A301A21BA3030A30A0000030A1000A161A
:101EF6008A15A6240A128A158316031320080A16C1
:101F06008A1508220A128A15503E84000A168A117A
:101F16000A200A128A1583160313C2000A168A11AA
:101F26000A200A128A15C3000A168A110A200A1202
:101F36008A15C4000330D6005608B0000A30A70040
:101F46000030A8005A08A900AA01A91BAA030A166C
:101F56008A15EC250A128A15831603132708093EEB
:101F66000A168A1508220A128A15503E84000A1695
:101F76008A110A200A128A1583160313C5000A1647
:101F86008A110A200A128A15C6000A168A110A2020
:101F96000A128A15C7000A168A1154240A128A15CB
:101FA600831603134208D2004308D3004408D40022
:101FB600FF2FFF2FDE2F0330D5005508B0005A083B
:101FC6000A168A1508220A128A15503E84000A1635
:101FD6008A110A200A128A1583160313D2000A16DA
:101FE6008A110A200A128A15D3000A168A110A20B3
:101FF6000A128A15D400FF2F0800FF1B0A28831334
:102006007F1883170008840A0319FF0A0800103096
:102016008A000408840A820700340134003400343C
:1020260000340A340034003400346434003400349C
:102036000034E834033400340034103427340034D8
:102046000034A034863401340034403442340F3432
:10205600003480349634983400340034E134F53456
:1020660005340034CA349A343B34003480343F3467
:10207600CD34CC343D34D73423343C341234833419
:102086003A34B734D1343834C63427343734383454
:1020960086343534C034D6343334CC342B343234ED
:1020A600703489343034E734DB342E34E5343C3450
:1020B6001E344234A2340D34003480343F340034AC
:1020C600203441340034C834423400347A34443441
:1020D60040341C3446345034C334473424347434C6
:1020E6004934973418344B34BC34BE344C346B34D6
:1020F6006E344E340334153450347934AD34603490
:10210600F33449347134483465346C346C346F3488
:10211600203457346F3472346C34643421340A34C6
:102126000034503469347434633468343A340034D7
:10213600253430342E343334663400345934613423
:1021460077343A3400343134303430343134003476
:082156002534333464340034F5
:10216200683083160313A0000130A1004808B400B0
:102172004908B5004A08B6000A168A155A270A16EF
:102182008A11831603133409CB003509CC00CB0A1C
:102192000319CC0A4B08B43EA2004C080318013EB6
:1021A200003EA3000A168A15A6240A168A1183166F
:1021B20003132009CD002109CE00CD0A0319CE0A4E
:1021C2004D08B43EC2004E080318013E003EC30053
:1021D2000A168A15F3220A168A1183160313420875
:1021E200CF004308D0004408D1004F08C80050086F
:1021F200C9005108CA00FD28080085308316031360
:10220200A2008030A300A401A5010A168A15EE23BC
:102212000A168A11923083160313A2008030A3009B
:10222200A4010314A40DA5010A168A15EE230A16A9
:102232008A1183160317390883160313C8008316FD
:1022420003173A0883160313C900831603173B08C2
:1022520083160313CA000A168A11B1200A168A11BC
:10226200831603134808B4004908B5004A08B600AB
:102272000A168A155A270A168A1183160313350875
:1022820083160317C801C80783160313340883167D
:102292000317C701C7079C3083160313EF006F08AB
:1022A200831603179000480892019207470891018C
:1022B2009107BC300A128A11E3260A168A11BC3031
:1022C20083160313A2000130A300A4010314A40D7A
:1022D2000430EF006F08A5000A168A15EE230A16CD
:1022E2008A1183160317360883160313B400831664
:1022F2000317370883160313B5008316031738082C
:1023020083160313B6000A168A155A270A168A116B
:1023120083160313350883160317CA01CA078316E7
:102322000313340883160317C901C9079C308316A7
:102332000313EF006F088316031790004A089201F7
:102342009207490891019107BC300A128A11E326CB
:102352000A168A11BC3083160313A2000130A300AF
:10236200A4010630EF006F08A5000A168A15EE23B5
:102372000A168A110800831203132308A6002408F0
:10238200A7002508A8000310270D280DA900290879
:10239200AE00AE08031DCE29CF29D7290030A000F8
:1023A2000030A1000030A200832A832A2008A60060
:1023B2002108A7002208A8000310270D280DA90054
:1023C2002908AF00AF08031DE729E829F0290030EA
:1023D200A0000030A1000030A200832A832A00302E
:1023E200AB000030AC000030AD0089302F07A600F2
:1023F2002608AE022308A6002408A7002508A80084
:1024020010300310A80CA70CA60CFF3E031D022AD5
:102412002608A9002908AF002008A6002108A70065
:102422002208A80010300310A80CA70CA60CFF3E2F
:10243200031D142A2608A9002908AF068030A60029
:102442002608AF05A417FF30A305FF30A40500300E
:10245200A505A117FF30A005FF30A1050030A20598
:102462001830A6002608AA00362A01300310AB0D48
:10247200AC0DAD0DFF3E031D372A22082502031DB8
:10248200482A21082402031D482A20082302031C8B
:102492004B2A4C2A582A2008A3022108031C210F88
:1024A200A4022208031C220AA5022B14582A013076
:1024B2000310A30DA40DA50DFF3E031D592A0130E3
:1024C200AA02031D652A662A362A672A2B08F0000B
:1024D2002C08F1002D08F2002E08A6002608F300B1
:1024E2002F08A7002708F4000A168A1562260A1682
:1024F2008A11700883120313A0007108A1007208E8
:10250200A200832A0800831603132008A6002108CC
:10251200A7002208A8000310270D280DA9002908EA
:10252200AF00AF08031D962A972AA12A0030A30004
:102532000030A2000030A1000030A000652B652B06
:102542002308A6002408A7002508A8000310270DC9
:10255200280DA9002908AE00AE08031DB12AB22A2F
:10256200BC2A0030A3000030A2000030A1000030DD
:10257200A000652B652BA117FF30A005FF30A10538
:102582000030A205A417FF30A305FF30A4050030D8
:10259200A5050030AD000030AC000030AB000030CB
:1025A200AA007F30AF0298302E07A6002608AF029D
:1025B2001830A6002608AE00DE2A0130A60003105D
:1025C200AA0DAB0DAC0DAD0DA60BE02A250822021B
:1025D200031DF12A24082102031DF12A23082002E7
:1025E200031CF42AF52A012B2308A0022408031C49
:1025F200240FA1022508031C250AA2022A14012B7A
:1026020001300310A00DA10DA20DFF3E031D022BF0
:102612000130AE02031D0E2B0F2BDE2AAF1F122B31
:10262200132B382B2F08803A973E0318192B1A2B9D
:10263200252B0030A3000030A2000030A1000030A2
:10264200A000652B652B252B01300310AD0CAC0CC3
:10265200AB0CAA0CFF3E031D262B0130A600260858
:10266200AF07031D352B362B252B5C2B5C2B18302B
:102672002F02031C3D2B3E2B552B0030A3000030B4
:10268200A2000030A1000030A000652B652B552B65
:102692000130A6000310AA0DAB0DAC0DAD0DA60BBB
:1026A2004B2B0130AF02552BAF08031D592B5A2B70
:1026B200492B5C2B5C2B2D08A3002C08A2002B08B5
:1026C200A1002A08A000652B08008312031330081A
:1026D200B6003108B7003208B8000310370D380DC4
:1026E200B9003908BA00BA08031D782B792B812B5F
:1026F2000030B0000030B1000030B200532C532C37
:102702003308B6003408B7003508B8000310370D97
:10271200380DB9003908BF00BF08031D912B922B59
:102722009A2B0030B0000030B1000030B200532CC0
:10273200532C3F087B3EB6003608BA073008B60075
:102742003108B7003208B80010300310B80CB70CCB
:10275200B60CFF3E031DA62B3608B9003908BF0090
:102762003308B6003408B7003508B800103003103B
:10277200B80CB70CB60CFF3E031DB82B3608B900D7
:102782003908BF068030B6003608BF05B117B41746
:10279200FF30B305FF30B4050030B5050030BB0093
:1027A2000030BC000030BD000730B6003608BE0065
:1027B200DA2B301CDD2BDE2BEF2B3308BB07340862
:1027C20003110318340A0319E72BBC073508031158
:1027D2000318350A0319EE2BBD07EF2B0130031046
:1027E200B20CB10CB00CFF3E031DF02B01300310F4
:1027F200B30DB40DB50DFF3E031DF82B0130BE0223
:10280200031D042C052CDA2B062C0930B6003608E1
:10281200BE000B2C301C0E2C0F2C202C3308BB07B7
:10282200340803110318340A0319182CBC0735089D
:1028320003110318350A03191F2CBD07202C013080
:102842000310B20CB10CB00CFF3E031D212C013061
:102852000310BD0CBC0CBB0CFF3E031D292C013028
:10286200BE02031D352C362C0B2C372C3B08F000F6
:102872003C08F1003D08F2003A08B6003608F300C1
:102882003F08B7003708F4000A168A1562260A16AE
:102892008A11700883120313B0007108B100720824
:1028A200B200532C0800831603134208C8004308E1
:1028B200C9004408CA000310490D4A0DCB004B0859
:1028C200CC00CC08031D662C672C6F2C0030C20094
:1028D2000030C3000030C400412D412D4508C8001E
:1028E2004608C9004708CA000310490D4A0DCB002B
:1028F2004B08D100D108031D7F2C802C882C00307E
:10290200C2000030C3000030C400412D412D5108E7
:102912007B3EC8004808CC074208C8004308C900EB
:102922004408CA0010300310CA0CC90CC80CFF3E80
:10293200031D942C4808CB004B08D1004508C80061
:102942004608C9004708CA0010300310CA0CC90C57
:10295200C80CFF3E031DA62C4808CB004B08D1062D
:102962008030C8004808D105C317C617FF30C50517
:10297200FF30C6050030C7050030CD000030CE0064
:102982000030CF000730C8004808D000C82C421CD5
:10299200CB2CCC2CDD2C4508CD074608031103189F
:1029A200460A0319D52CCE07470803110318470A14
:1029B2000319DC2CCF07DD2C01300310C40CC30C2F
:1029C200C20CFF3E031DDE2C01300310C50DC60DE7
:1029D200C70DFF3E031DE62C0130D002031DF22C71
:1029E200F32CC82CF42C0930C8004808D000F92C6C
:1029F200421CFC2CFD2C0E2D4508CD074608031168
:102A02000318460A0319062DCE07470803110318B7
:102A1200470A03190D2DCF070E2D01300310C40CE8
:102A2200C30CC20CFF3E031D0F2D01300310CF0C4F
:102A3200CE0CCD0CFF3E031D172D0130D002031D1D
:102A4200232D242DF92C252D4D08A0004E08A10080
:102A52004F08A2004C08C8004808A3005108C9004A
:102A62004908A4000A168A15DD260A168A11831659
:102A720003132008C2002108C3002208C400412D0C
:102A82000800A03084008313000883160313A600F5
:102A9200840A0008A700840A0008A800840A000823
:102AA200A9000310280D290DAA002A08B300B308B3
:102AB200031D5C2D5D2D672D0030A3000030A200A8
:102AC2000030A1000030A000962E962EA330840084
:102AD2000008A600840A0008A700840A0008A800CB
:102AE200840A0008A9000310280D290DAA002A084B
:102AF200B200B208031D7E2D7F2D892D0030A30068
:102B02000030A2000030A1000030A000962E962EC8
:102B1200A030840000308004840A00308004840ADB
:102B220080308004840A00308004A0308400FF30AA
:102B32008005840AFF308005840AFF308005840AFC
:102B420000308005A330840000308004840A003005
:102B52008004840A80308004840A00308004A33018
:102B62008400FF308005840AFF308005840AFF302C
:102B72008005840A003080050030B1000030B000CA
:102B82000030AF000030AE007F30B302A030320719
:102B9200A6002608B3022030A6002608B200D12DD6
:102BA2000130A6000310AE0DAF0DB00DB10DA60B96
:102BB200D32DA33084000008A600840A0008A700D1
:102BC200840A0008A800840A0008A900A030840032
:102BD2000008AA00840A0008AB00840A0008AC00BE
:102BE200840A0008AD0029082D02031D022E2808C0
:102BF2002C02031D022E27082B02031D022E26087B
:102C02002A02031C052E062E292EA330840000085A
:102C1200A600840A0008A700840A0008A800840A03
:102C22000008A900A030840026088002840A270830
:102C3200031C270F8002840A2808031C280F800225
:102C4200840A2908031C290A8002033084022E14F4
:102C5200A030840001300310800D840A800D840AA4
:102C6200800D840A800D840384038403FF3E031DC8
:102C72002C2E0130B202031D3F2E402ED12DB31F48
:102C8200432E442E692E3308803A9F3E03184A2E63
:102C92004B2E562E0030A3000030A2000030A100BF
:102CA2000030A000962E962E562E01300310B10C45
:102CB200B00CAF0CAE0CFF3E031D572E0130A60028
:102CC2002608B307031D662E672E562E8D2E8D2ED7
:102CD20020303302031C6E2E6F2E862E0030A3008E
:102CE2000030A2000030A1000030A000962E962EE7
:102CF200862E0130A6000310AE0DAF0DB00DB10D42
:102D0200A60B7C2E0130B302862EB308031D8A2E39
:102D12008B2E7A2E8D2E8D2E3108A3003008A20024
:102D22002F08A1002E08A000962E0800831203137C
:102D3200C600C401E908031D9F2EA02EB62E460828
:102D4200553A031DA52EA62EFF2F4608C00068087F
:102D52005D3E8400400883138000E9010314E90DFD
:102D6200E8010314E80DFF2FFF2F6908013A031D44
:102D7200BB2EBC2ED42E4608533A031DC12EC22EA2
:102D8200FF2F4608C00068085D3E84004008831398
:102D920080000230C0004008E9000230C000400854
:102DA200E800FF2FFF2F6908023A031DD92EDA2E01
:102DB200FF2F4608C00068085D3E84004008831368
:102DC20080000130C0004008E80768080B3A031D84
:102DD200EB2EEC2EFF2FC5010A304502031CF22E0A
:102DE200F32EF52E082F082F45085D3E8400440877
:102DF2000007C0004008C4000130C0004008C507F9
:102E02000A304502031C062F072FF52E082F6708EC
:102E12004406031D0D2F0E2FF72F0030B000343063
:102E2200B1004330B2000030A0000030A1004730B2
:102E3200A2005F08C000C1016008C200C3014208CD
:102E4200C300C20140084204F80041084304F900EB
:102E52000A168A159F220A168A117808831203130A
:102E6200A3007908A4007A08A5000A168A11BC21D9
:102E72000A168A11831203132008B3002108B40032
:102E82002208B5000A168A1166230A168A118312CD
:102E92000313300883160317CE008312031331087D
:102EA20083160317CF008312031332088316031706
:102EB200D000003083120313B0003430B10043302D
:102EC200B2000030A0000030A1004730A20061082B
:102ED200C000C1016208C200C3014208C300C201AE
:102EE20040084204F80041084304F9000A168A1512
:102EF2009F220A168A11780883120313A300790805
:102F0200A4007A08A5000A168A11BC210A168A11A1
:102F1200831203132008B3002108B4002208B5006D
:102F22000A168A1166230A168A11831203133008BD
:102F320083160317CB00831203133108831603177A
:102F4200CC0083120313320883160317CD0000301E
:102F520083120313B0003430B1004330B2000030AA
:102F6200A0000030A1004730A2006308C000C101E8
:102F72006408C200C3014208C300C20140084204FF
:102F8200F80041084304F9000A168A159F220A161E
:102F92008A11780883120313A3007908A4007A081F
:102FA200A5000A168A11BC210A168A11831203137C
:102FB2002008B3002108B4002208B5000A168A11BD
:102FC20066230A168A118312031330088316031725
:102FD200D10083120313310883160317D200831220
:102FE2000313320883160317D300F72F8312031338
:0E2FF200E901E801FF2FFF2FFF2FFF2F08003E
:1032FC000F30831603138600811308008316031303
:10330C008901831203130910080064008001840AE8
:10331C0004060319003404068C29831603132208AF
:10332C002104200403199B299C299F298030A20683
:10333C009F29A029080083120313851205128511F9
:10334C000A168A1522220A168A158312031385156A
:10335C000800831203138516051285110A168A15A7
:10336C0022220A168A1583120313851508000A16E1
:10337C008A15A1210A168A150130831203138800BD
:10338C000A168A1522220A168A150800303431349E
:10339C0032343334343435343634373438343934D5
:1033AC004134423443344434453446347E088A0034
:1033BC007F0882000A168A15DC210A168A158000FD
:1033CC00840A04087D0603190034FF0A0319FE0A57
:1033DC00E029C0308316031387002430980018129C
:1033EC009030831203139800981719308316031327
:1033FC0099008312031318168B170B1783160313DC
:10340C008C16080083160313B300B201331C0F2A69
:10341C00102A152A3008B1003108B207152A0310FA
:10342C00B00D0310B30CB308031D1D2A1E2A0C2A61
:10343C001F2A3208212A0800E73083160313A00044
:10344C000330A10021082004031D2D2A2E2A302A26
:10345C003D2A3D2A0130A0020030031CA103A10229
:10346C0021082004031D3B2A3C2A302A3D2A08004F
:10347C008C1E412A422A4F2A013089061A08C7009D
:10348C004708CC004C080A168A1197260A168A158A
:10349C004F2A831203134B08FF004A088A0049087D
:1034AC008400480E8300FE0E7E0E090080308316C9
:1034BC000313E1066208D2006308D3006408D40049
:1034CC005F08D5006008D6006108D7000A128A157B
:1034DC0003200A168A15831603135208DF005308BB
:1034EC00E0005408E1007A2A080083135D30840060
:1034FC006C300A168A158B210A168A158317CB3065
:10350C008400D4300A168A158B210A168A15831367
:10351C005D30FD001930FE00CC30FF004D308400D2
:10352C000A168A15E0210A168A1583010A168A15CD
:10353C00952BFD01F91FA32AA42AAD2AF809F90934
:10354C00F80A0319F90AFD010314FD0DAD2A7808D8
:10355C00F0007908F100F2018E30FB007B08F300DB
:10356C007D08FC007C08F4000A168A1562260A16EF
:10357C008A157008F8007108F9007208FA00C62A5A
:10358C00080083160313A401A501CC2A201CCF2A02
:10359C00D02AD62A2208A4070318A50A2308A507AF
:1035AC0001300310A20DA30DFF3E031DD72A0130DD
:1035BC000310A10CA00CFF3E031DDE2A21082004E1
:1035CC00031DE92AEA2ACC2AEB2A2508A101A10726
:1035DC002408A001A007F22A080083160313C701D0
:1035EC00C31FF92AFA2A032BC209C309C20A0319F9
:1035FC00C30AC7010314C70D032B4208A0004308DC
:10360C00A100A2018E30C5004508A3004708C600E2
:10361C004608A4000A168A15DD260A168A15831692
:10362C0003132008C2002108C3002208C4001E2B6B
:10363C0008008E3083160313AC002C08AD00342B1D
:10364C0001300310AB0CAA0CA90CA80CFF3E031DF7
:10365C00272B0130AC002C08AD07342BFF302B0589
:10366C00031D392B3A2B262B3B2B2808A0002908AD
:10367C00A1002A08A2002D08AC002C08A300A4016C
:10368C000A168A15DD260A168A15831603132008D6
:10369C00A8002108A9002208AA00542B08008316B0
:1036AC000313880107309F008501831203138801DF
:1036BC0085150A168A1522220A168A1583160313F3
:1036CC00880185018312031388010A168A152222A8
:1036DC000A168A1501308312031388000A168A15FC
:1036EC00A1210A168A1538308312031388000A1692
:1036FC008A15A1210A168A150C308312031388002F
:10370C000A168A15A1210A168A150630831203138C
:10371C0088000A168A15A1210A168A1508000A16AD
:10372C008A1584210A168A150A168A1555230A1633
:10373C008A15973083160313A2008030A300A401CE
:10374C00A5010A168A15EE230A168A1577308316F8
:10375C000313A2008030A300A4010314A40DA5013F
:10376C000A168A15EE230A168A150A168A15BD2121
:10377C000A168A150A168A157E210A168A150A1641
:10378C008A15EF210A168A150A168A1555230A1668
:10379C008A15D02B831603174E08B3004F08B400BC
:1037AC005008B5004B08B6004C08B7004D08B800DF
:1037BC005108B9005208BA005308BB000A168A1106
:1037CC00FE200A168A15D02BD02B0A128A11122829
:1037DC0083160313A408031DF42BF52BFB2B2508D0
:1037EC00803EA6002608A700012C2508C03EA60096
:1037FC002608A700012C27088312031388000A1639
:10380C008A15A1210A168A15302C83160313230856
:10381C0083120313FF008316031322088400831200
:10382C0003130A168A1100200A168A158800013023
:10383C0083160313A2070318A30A0030A3070A1662
:10384C008A15AF210A168A150A168A1522220A161B
:10385C008A15302C83160313230883120313FF00DD
:10386C008316031322088400831203130A168A1189
:10387C0000200A168A150038031D452C462C0B2CEB
:10388C00472C080083160313310830042F042E0430
:10389C000319512C522C9C2CB7010314B70D642C1A
:1038AC000130B6000310AE0DAF0DB00DB10DB60B5F
:1038BC00582C0130B6003608B707642CB11F672CA2
:1038CC00682C562C6A2C6A2C31083502031D782C76
:1038DC0030083402031D782C2F083302031D782C7A
:1038EC002E083202031C7B2C7C2C8B2C2E08B20253
:1038FC002F08031C2F0FB3023008031C300FB40227
:10390C003108031C310FB5028B2C01300310B10CA4
:10391C00B00CAF0CAE0CFF3E031D8C2C0130B7026B
:10392C00031D992C9A2C6A2C9C2C9C2C3508B100CC
:10393C003408B0003308AF003208AE00A52C0800E4
:10394C0083160313A601A31FAC2CAD2CB62CA20915
:10395C00A309A20A0319A30AA6010314A60DB62CE7
:10396C00A11FB92CBA2CC02CA009A109A00A0319BB
:10397C00A10AC02C210820040319C52CC62CFC2C30
:10398C00A5010314A50DD62C01300310A00DA10D1B
:10399C00FF3E031DCB2C0130A4002408A507D62C18
:1039AC00A11FD92CDA2CCA2CDC2CDC2C21082302EC
:1039BC00031DE22C20082202031CE52CE62CED2C26
:1039CC002008A2022108031CA303A302ED2C013042
:1039DC000310A10CA00CFF3E031DEE2C0130A50220
:1039EC00031DF92CFA2CDC2CFC2CFC2C2608031DBA
:1039FC00002D062DA209A309A20A0319A30A062D5C
:103A0C002308A101A1072208A001A0070D2D080081
:103A1C0083160313A21F132D142D3A2D0030A6006C
:103A2C000030A7008030A8002009A9002109AA00B5
:103A3C002209AB00A90A0319AA0A0319AB0A29081F
:103A4C00A6072A0803182A0F2C2D2D2DA7072B08A3
:103A5C0003182B0F322D332DA8072608A00027089A
:103A6C00A1002808A2003A2DA51F3D2D3E2D642D46
:103A7C000030A6000030A7008030A8002309A90060
:103A8C002409AA002509AB00A90A0319AA0A0319DB
:103A9C00AB0A2908A6072A0803182A0F562D572DFA
:103AAC00A7072B0803182B0F5C2D5D2DA8072608E4
:103ABC00A3002708A4002808A500642D8030A206C6
:103ACC008030A50625082202031D722D2408210230
:103ADC00031D722D230820020318752D762D782DC9
:103AEC0003107B2D03147B2D7B2D080000308316D7
:103AFC000313AC000030AB000030AA000030A9006A
:103B0C00230822042104200403198D2D8E2DE22D6F
:103B1C00AD010314AD0DA02D0130A8000310A00DB4
:103B2C00A10DA20DA30DA80B942D0130A8002808FF
:103B3C00AD07A02DA31FA32DA42D922DA62DA62D30
:103B4C000130A8000310A90DAA0DAB0DAC0DA80BEC
:103B5C00A82D23082702031DBD2D22082602031DB4
:103B6C00BD2D21082502031DBD2D20082402031C98
:103B7C00C02DC12DD12D2008A4022108031C210F1A
:103B8C00A5022208031C220FA6022308031C230FE4
:103B9C00A7022914D12D01300310A30CA20CA10CE7
:103BAC00A00CFF3E031DD22D0130AD02031DDF2DF5
:103BBC00E02DA62DE22DE22D2C08A3002B08A2004F
:103BCC002A08A1002908A000EB2D08008316031376
:103BDC00AD01A81FF22DF32DFC2DA709A809A70AEA
:103BEC000319A80AAD010314AD0DFC2DAA1FFF2D5E
:103BFC00002E0A2EA909AA09A90A0319AA0A01303A
:103C0C00AB002B08AD060A2EAE01AF012808270425
:103C1C000319112E122E502EAC010314AC0D222EB2
:103C2C0001300310A70DA80DFF3E031D172E013008
:103C3C00AB002B08AC07222EA81F252E262E162EE5
:103C4C00282E282E01300310AE0DAF0DFF3E031DA4
:103C5C00292E28082A02031D352E27082902031CA9
:103C6C00382E392E412E2708A9022808031CAA0336
:103C7C00AA022E14412E01300310A80CA70CFF3EF3
:103C8C00031D422E0130AC02031D4D2E4E2E282E4C
:103C9C00502E502E2D08031D542E5A2EAE09AF094E
:103CAC00AE0A0319AF0A5A2E2F08A801A8072E082E
:103CBC00A701A707612E08007308031D662E6E2E40
:103CCC00720871047004031D6C2E6D2E842E6E2EE2
:103CDC000030F0000030F1000030F200DC2EDC2E61
:103CEC00842E0130F5007508F30701300310F20C37
:103CFC00F10CF00CFF3E031D7C2E842EFE30720561
:103D0C00031D892E8A2E772EA22EA22E0130F500AD
:103D1C007508F3070130F007003003180130F10784
:103D2C00003003180130F20701300310F20CF10CD3
:103D3C00F00CFF3E031D9B2EFF307205031DA72EBA
:103D4C00A82E8C2EB52EB52E0130F30201300310A7
:103D5C00F00DF10DF20DFF3E031DAD2EB52EF11F32
:103D6C00B82EB92EAA2E7318BC2EBD2EC32EFF3022
:103D7C00F0057F30F105FF30F2050310F30C7308EA
:103D8C00F500F601F70110300310F50DF60DF70DE7
:103D9C00FF3E031DCA2E7508F0047608F10477085F
:103DAC00F2047408031DDB2EDC2EF21708008316B8
:103DBC0003132308031DE32EEB2E220821042004F9
:103DCC00031DE92EEA2E012FEB2E0030A00000304F
:103DDC00A1000030A200592F592F012F0130A5004E
:103DEC002508A30701300310A20CA10CA00CFF3E68
:103DFC00031DF92E012FFE302205031D062F072F60
:103E0C00F42E1F2F1F2F0130A5002508A30701300A
:103E1C00A007003003180130A1070030031801304F
:103E2C00A20701300310A20CA10CA00CFF3E031D35
:103E3C00182FFF302205031D242F252F092F322F79
:103E4C00322F0130A30201300310A00DA10DA20DE1
:103E5C00FF3E031D2A2F322FA11F352F362F272F60
:103E6C002318392F3A2F402FFF30A0057F30A105A2
:103E7C00FF30A2050310A30C2308A500A601A7017F
:103E8C0010300310A50DA60DA70DFF3E031D472FE7
:103E9C002508A0042608A1042708A2042408031D51
:103EAC00582F592FA2170800831603133408B80093
:103EBC003508B9003608BA000310390D3A0DBB00AD
:103ECC003B08C100C108031D6C2F6D2F772F0030EC
:103EDC00B7000030B6000030B5000030B400FF2F42
:103EEC00FF2F3408B8003508B9003608BA0017306F
:103EFC000310BA0CB90CB80CFF3E031D7E2F38080A
:103F0C00BB003B08BC00B517FF30B405FF30B5054E
:103F1C000030B6053408BD003508BE003608BF00B9
:103F2C00C0018E30C102C11F9C2F9D2FC22F410892
:103F3C00803A8F3E0318A32FA42FAF2F0030B70069
:103F4C000030B6000030B5000030B400FF2FFF2F5A
:103F5C00AF2F01300310C00CBF0CBE0CBD0CFF3ECC
:103F6C00031DB02F0130B8003808C107031DBF2F47
:103F7C00C02FAF2FE62FE62F18304102031CC72F9E
:103F8C00C82FDF2F0030B7000030B6000030B5006E
:103F9C000030B400FF2FFF2FDF2F0130B8000310CB
:103FAC00BD0DBE0DBF0DC00DB80BD52F0130C1021C
:103FBC00DF2FC108031DE32FE42FD32FE62FE62FAD
:103FCC003C08031DEA2FF62FBD09BE09BF09C00925
:103FDC00BD0A0319BE0A0319BF0A0319C00AF62F3A
:103FEC004008B7003F08B6003E08B5003D08B400D5
:043FFC00FF2F08008B
:02400E0029FF88
:00000001FF
