:060000000A128A11122809
:10000800FE00030E83120313E5000408E6000A0845
:10001800E7007F08E8000A128A11A12A0A128A1149
:100028003B2D831603138801003083120313AB00A2
:100038000030AA000030A9000030A800831603137E
:10004800850107309F00F030860081138B158B19CE
:100058002E2830288B1731288B1383120313060898
:1000680083160313A200220883120313E9000B105E
:1000780086010A128A111F250A128A110130831279
:10008800031388000A128A11A9250A128A11383026
:100098008312031388000A128A11A9250A128A11E9
:1000A8000C308312031388000A128A11A9250A1238
:1000B8008A1106308312031388000A128A11A925AF
:1000C8000A128A11C030831603138700263099005C
:1000D800181198011812831203139801981718160B
:1000E8008316031398168312031318178B170B170D
:1000F800831603130C128C16812880308312031385
:1001080088000A128A11A9250A128A118312031378
:100118003F08433E84008313000888000A128A11AE
:100128009B250A128A1183120313400883160313AE
:10013800A20004300310A20CFF3E031D9E282208D3
:10014800433E8400831300088312031388000A12B5
:100158008A119B250A128A118312031340080F394A
:10016800433E84008313000888000A128A119B25E5
:100178000A128A1148308312031388000A128A115E
:100188009B250A128A1120308312031388000A1251
:100198008A119B250A128A11C03083120313880022
:1001A8000A128A11A9250A128A1183120313340824
:1001B800433E84008313000888000A128A119B2595
:1001C8000A128A112E308312031388000A128A1128
:1001D8009B250A128A11831203133208433E8400B6
:1001E8008313000888000A128A119B250A128A11B3
:1001F800831203133008433E8400831300088800E9
:100208000A128A119B250A128A11831203132E08D7
:10021800433E84008313000888000A128A119B2534
:100228000A128A11831203132C08433E8400831395
:10023800000888000A128A119B250A128A11563072
:100248008312031388000A128A119B250A128A1145
:1002580020308312031388000A128A119B250A1280
:100268008A11CB308312031388000A128A11A92538
:100278000A128A11831203134208433E840083132F
:10028800000888000A128A119B250A128A11203058
:100298008312031388000A128A119B250A128A11F5
:1002A800CF308312031388000A128A11A9250A1273
:1002B8008A11831203133E08433E84008313000807
:1002C80088000A128A119B250A128A11203083128B
:1002D800031388000A128A119B250A128A118128A1
:1002E8000A128A111228831203132808F000290819
:1002F800F1000030F11BFF30F200F3000030F7008E
:100308000030F600C330F5005030F4000A128A11AC
:10031800AB240A128A11730883120313A700720808
:10032800A6007108A5007008A4000030F300003092
:10033800F2000330F100FF30F0002708F70026082C
:10034800F6002508F5002408F4000A128A118F2304
:100358000A128A11730883120313A3007208A200F9
:100368007108A1007008A0000030F3000030F2000E
:100378002730F1001030F0002308F7002208F600BB
:100388002108F5002008F4000A128A118F230A12A6
:100398008A11710883120313B501B5077008B401F7
:1003A800B4073508F101F1073408F001F0071030FF
:1003B800F2002730F3000A128A11F5240A128A1172
:1003C800700983120313E1007109E200E10A0319BD
:1003D800E20A20086107B60021080318210A62070B
:1003E800B700E830F0000330F1003708F301F307F5
:1003F8003608F201F2070A128A1137240A128A1102
:10040800710883120313B301B3077008B201B2076E
:100418003308F101F1073208F001F007E830F20083
:100428000330F3000A128A11F5240A128A1170099E
:1004380083120313E1007109E200E10A0319E20AD9
:1004480036086107B80037080318370A6207B90089
:100458006430F0000030F1003908F301F307380880
:10046800F201F2070A128A1137240A128A11710856
:1004780083120313B101B1077008B001B007310846
:10048800F101F1073008F001F0076430F2000030A4
:10049800F3000A128A11F5240A128A1170098312CC
:1004A8000313E1007109E200E10A0319E20A3808BE
:1004B8006107BA0039080318390A6207BB000A3015
:1004C800F0000030F1003B08F301F3073A08F201AD
:1004D800F2070A128A1137240A128A117108831244
:1004E8000313AF01AF077008AE01AE072F08F10183
:1004F800F1072E08F001F0070A30F2000030F3008F
:100508000A128A11F5240A128A1170098312031338
:10051800E1007109E200E10A0319E20A3A086107F9
:10052800BC003B0803183B0A6207BD003D08AD014B
:10053800AD073C08AC01AC0708008C1EA42AA52A0C
:10054800D32A181CA82AA92AAE2A1A08E300630885
:10055800C000B32A1A08E3006308C100B32A41089F
:100568000F39E3006308BF004108E30004300310BB
:10057800E30CFF3E031DBB2A6308E4006408C200C5
:100588008C123F08E3006308A9004008E3006308F1
:10059800A8000A128A1177210A128A11822B831263
:1005A800031369080606E3006308E9000F308316A1
:1005B80003138600831203136909F03986000A12AF
:1005C8008A1156250A128A118312031306080F3955
:1005D800E3006308FD006908103A031DF42AF52AB0
:1005E800FD2A7D080E3A031DFA2AFB2AFD2ABE01C0
:1005F800FD2A6908103A031D022B032B0D2B7D08D9
:100608000D3A031D082B092B0D2B0430E30063085A
:10061800BE006908203A031D122B132B1D2B7D08E1
:100628000E3A031D182B192B1D2BBE010314BE0DEA
:100638001D2B6908203A031D222B232B2D2B7D0807
:100648000D3A031D282B292B2D2B0530E3006308B9
:10065800BE006908403A031D322B332B3D2B7D0821
:100668000E3A031D382B392B3D2B0230E30063086B
:10067800BE006908403A031D422B432B4D2B7D08D1
:100688000D3A031D482B492B4D2B0630E300630818
:10069800BE006908803A031D522B532B5D2B7D0841
:1006A8000E3A031D582B592B5D2B0330E3006308CA
:1006B800BE006908803A031D622B632B6E2B7D08F0
:1006C8000D3A031D682B692B6E2B0730E300630876
:1006D800BE006E2B831603131810831203133E08F3
:1006E8009900F030831603138600831203138601E2
:1006F8000608E3006308E9000B10822B831203133A
:100708006808FF0067088A0066088400650E830091
:10071800FE0E7E0E090083120313DC01F31F952BD6
:10072800962BA52BF009F109F209F309F00A031930
:10073800F10A0319F20A0319F30ADC010314DC0DA8
:10074800A52BF71FA82BA92BB92BF409F509F60936
:10075800F709F40A0319F50A0319F60A0319F70A3F
:100768000130F8007808DC06B92B0030E0000030D2
:10077800DF000030DE000030DD0073087204710411
:1007880070040319C82BC92B1D2CDB010314DB0DC6
:10079800DB2B0130F8000310F00DF10DF20DF30D15
:1007A800F80BCF2B0130F8007808DB07DB2BF31FA1
:1007B800DE2BDF2BCD2BE12BE12B0130F8000310D2
:1007C800DD0DDE0DDF0DE00DF80BE32B730877026E
:1007D800031DF82B72087602031DF82B71087502A9
:1007E800031DF82B70087402031CFB2BFC2B0C2C2C
:1007F8007008F4027108031C710FF5027208031CDB
:10080800720FF6027308031C730FF7025D140C2CA9
:1008180001300310F30CF20CF10CF00CFF3E031D39
:100828000D2C0130DB02031D1A2C1B2CE12B1D2C77
:100838001D2C5C08031D212C2D2CDD09DE09DF0988
:10084800E009DD0A0319DE0A0319DF0A0319E00AC1
:100858002D2C6008F3005F08F2005E08F1005D08C7
:10086800F000362C0800F601F11F3B2C3C2C452CDF
:10087800F009F109F00A0319F10AF6010314F60D5B
:10088800452CF31F482C492C532CF209F309F20A82
:100898000319F30A0130F4007408F606532CF70123
:1008A800F8017108700403195A2C5B2C992CF50176
:1008B8000314F50D6B2C01300310F00DF10DFF3E04
:1008C800031D602C0130F4007408F5076B2CF11F30
:1008D8006E2C6F2C5F2C712C712C01300310F70DCE
:1008E800F80DFF3E031D722C71087302031D7E2C48
:1008F80070087202031C812C822C8A2C7008F20268
:100908007108031CF303F30277148A2C01300310D7
:10091800F10CF00CFF3E031D8B2C0130F502031D7A
:10092800962C972C712C992C992C7608031D9D2CAC
:10093800A32CF709F809F70A0319F80AA32C780871
:10094800F101F1077708F001F007AA2C0800003040
:10095800FC000030FB000030FA000030F900B42C35
:10096800701CB72CB82CD02C7408F9077508031123
:100978000318013E0319C12CFA077608031103185E
:10098800013E0319C82CFB07770803110318013E21
:100998000319CF2CFC07D02C0130F8000310F40DFC
:1009A800F50DF60DF70DF80BD22C01300310F30CF2
:1009B800F20CF10CF00CFF3E031DDA2C73087204E4
:1009C80071047004031DE92CEA2CB42CEB2C7C0870
:1009D800F3007B08F2007A08F1007908F000F42CA3
:1009E8000800F401F501F82C701CFB2CFC2C022DDE
:1009F8007208F4070318F50A7308F50701300310A5
:100A0800F20DF30DFF3E031D032D01300310F10C11
:100A1800F00CFF3E031D0A2D71087004031D152DEF
:100A2800162DF82C172D7508F101F1077408F0013F
:100A3800F0071E2D0800E73083160313A0000330CB
:100A4800A10021082004031D2A2D2B2D2D2D3A2D20
:100A58003A2D0130A0020030031CA103A102210895
:100A68002004031D382D392D2D2D3A2D0800FD01A8
:100A780083132030840043300A128A11B7250A12E2
:100A88008A115B30FD000530FE007030FF004330F6
:100A980084000A128A118C250A128A1183010A120B
:100AA8008A1115286330F0000030F10071087004D5
:100AB800031D5F2D602D622D6F2D6F2D0130F0020B
:100AC8000030031CF103F10271087004031D6D2D41
:100AD8006E2D622D6F2D08003034313432343334AA
:100AE8003434353436343734383439344134423494
:100AF8004334443445344634413449345134593408
:100B080061346934003400347E088A007F0882002A
:100B18000A128A1188250A128A118000840A040898
:100B28007D0603190034FF0A0319FE0A8C2D83126F
:100B380003138516051285110A128A111F250A1238
:100B48008A11831203138515080083120313851273
:100B5800051285110A128A111F250A128A11831299
:100B680003138515080064008001840A040603192C
:060B780000340406B82D54
:02400E0029FF88
:00000001FF
