:060000000A128A11122809
:10000800FE00030EF3000408F4000A08F50083124A
:1000180003137F08F6000A128A1115280A128A119A
:1000280092298C1C18281928672808307702031889
:100038001E281F2867288C101F150C1B242825280C
:100048002728212821281E08F2007208F8008316A4
:1000580003131E08F2007208F900831203130C132D
:1000680035288316031398183A283B283D28352845
:1000780035287708F20003300310F20DFF3E031D08
:1000880040280310720D7804831203139900831615
:10009800031318144F2898185228532855284F2806
:1000A8004F28790883120313990083160313181035
:1000B8007708203E840083130008831203139F00EF
:1000C800770888001F298C1E6A286B2871281A084F
:1000D800F2007208F7008C121F297B080606F2004E
:1000E8007208FB000F308316031386007B09F03972
:1000F8008312031386000A128A1178210A128A11C0
:100108008312031306080F39F2007208FA007B08FD
:10011800103A031D9028912899287A080E3A031D51
:10012800962897289928F70199287B08103A031DE3
:100138009E289F28A9287A080D3A031DA428A528D7
:10014800A9280430F2007208F7007B08203A031D42
:10015800AE28AF28B9287A080E3A031DB428B52866
:10016800B928F7010314F70DB9287B08203A031DB5
:10017800BE28BF28C9287A080D3A031DC428C528F7
:10018800C9280530F2007208F7007B08403A031DC1
:10019800CE28CF28D9287A080E3A031DD428D52886
:1001A800D9280230F2007208F7007B08403A031D94
:1001B800DE28DF28E9287A080D3A031DE428E52817
:1001C800E9280630F2007208F7007B08803A031D20
:1001D800EE28EF28F9287A080E3A031DF428F528A6
:1001E800F9280330F2007208F7007B08803A031DF3
:1001F800FE28FF280A297A080D3A031D0429052933
:100208000A290730F2007208F7000A298316031337
:1002180018107708831203139900F030831603131C
:1002280086008312031386010608F2007208FB0099
:100238000B101F291F297608FF0075088A0074080B
:100248008400730E8300FE0E7E0E0900F0308316C4
:100258000313860081138B158B19332935298B17C6
:1002680036298B13831203130608A8002808FB00FD
:100278000B108601C0308316031387008801831290
:1002880003138801F701FF308316031385004130FB
:10029800831203139F008030831603139F007F305F
:1002A800831203139200FF308316031392000B1777
:1002B8008C14831203138C100C132630831603132B
:1002C80099009801181283120313980198171816A9
:1002D80083160313981618178B170B178C160C1206
:1002E80074290A128A1112286330F0000030F100D4
:1002F80071087004031D8129822984299129912973
:100308000130F0020030031CF103F102710870049F
:10031800031D8F299029842991290800F701F801E4
:10032800F901FA0183132830FD000130FE00BB30CB
:10033800FF00203084000A128A11AC210A128A11A7
:1003480083010A128A112A297E088A007F088200FE
:100358000A128A11A8210A128A118000840A040844
:100368007D0603190034FF0A0319FE0AAC2941343B
:0E037800493451345934613469347134793464
:02400E0029FF88
:00000001FF
